{
  "_format": "hh-sol-artifact-1",
  "contractName": "Lending",
  "sourceName": "contracts/Lending.sol",
  "abi": [
    {
      "inputs": [
        {
          "internalType": "address",
          "name": "_dETH",
          "type": "address"
        },
        {
          "internalType": "address",
          "name": "_ethUsdFeed",
          "type": "address"
        }
      ],
      "stateMutability": "nonpayable",
      "type": "constructor"
    },
    {
      "inputs": [
        {
          "internalType": "address",
          "name": "owner",
          "type": "address"
        }
      ],
      "name": "OwnableInvalidOwner",
      "type": "error"
    },
    {
      "inputs": [
        {
          "internalType": "address",
          "name": "account",
          "type": "address"
        }
      ],
      "name": "OwnableUnauthorizedAccount",
      "type": "error"
    },
    {
      "inputs": [],
      "name": "ReentrancyGuardReentrantCall",
      "type": "error"
    },
    {
      "inputs": [
        {
          "internalType": "address",
          "name": "token",
          "type": "address"
        }
      ],
      "name": "SafeERC20FailedOperation",
      "type": "error"
    },
    {
      "anonymous": false,
      "inputs": [
        {
          "indexed": true,
          "internalType": "address",
          "name": "user",
          "type": "address"
        },
        {
          "indexed": false,
          "internalType": "uint256",
          "name": "amount",
          "type": "uint256"
        }
      ],
      "name": "Borrowed",
      "type": "event"
    },
    {
      "anonymous": false,
      "inputs": [
        {
          "indexed": true,
          "internalType": "address",
          "name": "user",
          "type": "address"
        },
        {
          "indexed": true,
          "internalType": "address",
          "name": "token",
          "type": "address"
        },
        {
          "indexed": false,
          "internalType": "uint256",
          "name": "amount",
          "type": "uint256"
        }
      ],
      "name": "CollateralDeposited",
      "type": "event"
    },
    {
      "anonymous": false,
      "inputs": [
        {
          "indexed": true,
          "internalType": "address",
          "name": "token",
          "type": "address"
        },
        {
          "indexed": true,
          "internalType": "address",
          "name": "feed",
          "type": "address"
        },
        {
          "indexed": false,
          "internalType": "bool",
          "name": "isSupported",
          "type": "bool"
        }
      ],
      "name": "CollateralSupported",
      "type": "event"
    },
    {
      "anonymous": false,
      "inputs": [
        {
          "indexed": true,
          "internalType": "address",
          "name": "user",
          "type": "address"
        },
        {
          "indexed": true,
          "internalType": "address",
          "name": "token",
          "type": "address"
        },
        {
          "indexed": false,
          "internalType": "uint256",
          "name": "amount",
          "type": "uint256"
        }
      ],
      "name": "CollateralWithdrawn",
      "type": "event"
    },
    {
      "anonymous": false,
      "inputs": [
        {
          "indexed": true,
          "internalType": "address",
          "name": "user",
          "type": "address"
        },
        {
          "indexed": false,
          "internalType": "uint256",
          "name": "amount",
          "type": "uint256"
        },
        {
          "indexed": false,
          "internalType": "uint256",
          "name": "dETHMinted",
          "type": "uint256"
        }
      ],
      "name": "DepositedETH",
      "type": "event"
    },
    {
      "anonymous": false,
      "inputs": [
        {
          "indexed": true,
          "internalType": "address",
          "name": "liquidator",
          "type": "address"
        },
        {
          "indexed": true,
          "internalType": "address",
          "name": "user",
          "type": "address"
        },
        {
          "indexed": false,
          "internalType": "uint256",
          "name": "repaid",
          "type": "uint256"
        },
        {
          "indexed": false,
          "internalType": "uint256",
          "name": "collateralSeized",
          "type": "uint256"
        }
      ],
      "name": "Liquidated",
      "type": "event"
    },
    {
      "anonymous": false,
      "inputs": [
        {
          "indexed": true,
          "internalType": "address",
          "name": "previousOwner",
          "type": "address"
        },
        {
          "indexed": true,
          "internalType": "address",
          "name": "newOwner",
          "type": "address"
        }
      ],
      "name": "OwnershipTransferred",
      "type": "event"
    },
    {
      "anonymous": false,
      "inputs": [
        {
          "indexed": true,
          "internalType": "address",
          "name": "user",
          "type": "address"
        },
        {
          "indexed": false,
          "internalType": "uint256",
          "name": "repaid",
          "type": "uint256"
        },
        {
          "indexed": false,
          "internalType": "uint256",
          "name": "remainingDebt",
          "type": "uint256"
        }
      ],
      "name": "Repaid",
      "type": "event"
    },
    {
      "anonymous": false,
      "inputs": [
        {
          "indexed": true,
          "internalType": "address",
          "name": "user",
          "type": "address"
        },
        {
          "indexed": false,
          "internalType": "uint256",
          "name": "dETHBurned",
          "type": "uint256"
        },
        {
          "indexed": false,
          "internalType": "uint256",
          "name": "amount",
          "type": "uint256"
        }
      ],
      "name": "WithdrawnETH",
      "type": "event"
    },
    {
      "inputs": [],
      "name": "LIQ_BONUS_BPS",
      "outputs": [
        {
          "internalType": "uint256",
          "name": "",
          "type": "uint256"
        }
      ],
      "stateMutability": "view",
      "type": "function"
    },
    {
      "inputs": [],
      "name": "LIQ_THRESHOLD_BPS",
      "outputs": [
        {
          "internalType": "uint256",
          "name": "",
          "type": "uint256"
        }
      ],
      "stateMutability": "view",
      "type": "function"
    },
    {
      "inputs": [],
      "name": "LTV_BPS",
      "outputs": [
        {
          "internalType": "uint256",
          "name": "",
          "type": "uint256"
        }
      ],
      "stateMutability": "view",
      "type": "function"
    },
    {
      "inputs": [],
      "name": "PRECISION",
      "outputs": [
        {
          "internalType": "uint256",
          "name": "",
          "type": "uint256"
        }
      ],
      "stateMutability": "view",
      "type": "function"
    },
    {
      "inputs": [
        {
          "internalType": "uint256",
          "name": "amountWei",
          "type": "uint256"
        }
      ],
      "name": "borrow",
      "outputs": [],
      "stateMutability": "nonpayable",
      "type": "function"
    },
    {
      "inputs": [
        {
          "internalType": "address",
          "name": "",
          "type": "address"
        }
      ],
      "name": "borrowBalances",
      "outputs": [
        {
          "internalType": "uint256",
          "name": "",
          "type": "uint256"
        }
      ],
      "stateMutability": "view",
      "type": "function"
    },
    {
      "inputs": [
        {
          "internalType": "address",
          "name": "",
          "type": "address"
        },
        {
          "internalType": "address",
          "name": "",
          "type": "address"
        }
      ],
      "name": "collateralBalance",
      "outputs": [
        {
          "internalType": "uint256",
          "name": "",
          "type": "uint256"
        }
      ],
      "stateMutability": "view",
      "type": "function"
    },
    {
      "inputs": [
        {
          "internalType": "uint256",
          "name": "",
          "type": "uint256"
        }
      ],
      "name": "collateralList",
      "outputs": [
        {
          "internalType": "address",
          "name": "",
          "type": "address"
        }
      ],
      "stateMutability": "view",
      "type": "function"
    },
    {
      "inputs": [],
      "name": "dETHToken",
      "outputs": [
        {
          "internalType": "contract DETH",
          "name": "",
          "type": "address"
        }
      ],
      "stateMutability": "view",
      "type": "function"
    },
    {
      "inputs": [
        {
          "internalType": "address",
          "name": "token",
          "type": "address"
        },
        {
          "internalType": "uint256",
          "name": "amount",
          "type": "uint256"
        }
      ],
      "name": "depositCollateral",
      "outputs": [],
      "stateMutability": "nonpayable",
      "type": "function"
    },
    {
      "inputs": [],
      "name": "depositInPool",
      "outputs": [],
      "stateMutability": "payable",
      "type": "function"
    },
    {
      "inputs": [],
      "name": "ethUsdFeed",
      "outputs": [
        {
          "internalType": "contract AggregatorV3Interface",
          "name": "",
          "type": "address"
        }
      ],
      "stateMutability": "view",
      "type": "function"
    },
    {
      "inputs": [],
      "name": "getCollateralList",
      "outputs": [
        {
          "internalType": "address[]",
          "name": "",
          "type": "address[]"
        }
      ],
      "stateMutability": "view",
      "type": "function"
    },
    {
      "inputs": [],
      "name": "getETHPriceUSD",
      "outputs": [
        {
          "internalType": "uint256",
          "name": "",
          "type": "uint256"
        }
      ],
      "stateMutability": "view",
      "type": "function"
    },
    {
      "inputs": [
        {
          "internalType": "address",
          "name": "user",
          "type": "address"
        }
      ],
      "name": "getHealthFactor",
      "outputs": [
        {
          "internalType": "uint256",
          "name": "",
          "type": "uint256"
        }
      ],
      "stateMutability": "view",
      "type": "function"
    },
    {
      "inputs": [],
      "name": "getPoolBalance",
      "outputs": [
        {
          "internalType": "uint256",
          "name": "",
          "type": "uint256"
        }
      ],
      "stateMutability": "view",
      "type": "function"
    },
    {
      "inputs": [
        {
          "internalType": "address",
          "name": "token",
          "type": "address"
        }
      ],
      "name": "getTokenPriceUSD",
      "outputs": [
        {
          "internalType": "uint256",
          "name": "",
          "type": "uint256"
        }
      ],
      "stateMutability": "view",
      "type": "function"
    },
    {
      "inputs": [],
      "name": "getTotalSupply",
      "outputs": [
        {
          "internalType": "uint256",
          "name": "",
          "type": "uint256"
        }
      ],
      "stateMutability": "view",
      "type": "function"
    },
    {
      "inputs": [
        {
          "internalType": "address",
          "name": "user",
          "type": "address"
        }
      ],
      "name": "getUserBorrowCapacity",
      "outputs": [
        {
          "internalType": "uint256",
          "name": "",
          "type": "uint256"
        }
      ],
      "stateMutability": "view",
      "type": "function"
    },
    {
      "inputs": [
        {
          "internalType": "address",
          "name": "user",
          "type": "address"
        }
      ],
      "name": "getUserCollateralValueETH",
      "outputs": [
        {
          "internalType": "uint256",
          "name": "",
          "type": "uint256"
        }
      ],
      "stateMutability": "view",
      "type": "function"
    },
    {
      "inputs": [],
      "name": "getUtilizationRate",
      "outputs": [
        {
          "internalType": "uint256",
          "name": "",
          "type": "uint256"
        }
      ],
      "stateMutability": "view",
      "type": "function"
    },
    {
      "inputs": [
        {
          "internalType": "address",
          "name": "user",
          "type": "address"
        }
      ],
      "name": "liquidate",
      "outputs": [],
      "stateMutability": "payable",
      "type": "function"
    },
    {
      "inputs": [],
      "name": "owner",
      "outputs": [
        {
          "internalType": "address",
          "name": "",
          "type": "address"
        }
      ],
      "stateMutability": "view",
      "type": "function"
    },
    {
      "inputs": [
        {
          "internalType": "address",
          "name": "",
          "type": "address"
        }
      ],
      "name": "priceFeed",
      "outputs": [
        {
          "internalType": "contract AggregatorV3Interface",
          "name": "",
          "type": "address"
        }
      ],
      "stateMutability": "view",
      "type": "function"
    },
    {
      "inputs": [],
      "name": "renounceOwnership",
      "outputs": [],
      "stateMutability": "nonpayable",
      "type": "function"
    },
    {
      "inputs": [],
      "name": "repay",
      "outputs": [],
      "stateMutability": "payable",
      "type": "function"
    },
    {
      "inputs": [
        {
          "internalType": "address",
          "name": "token",
          "type": "address"
        },
        {
          "internalType": "bool",
          "name": "supported",
          "type": "bool"
        },
        {
          "internalType": "address",
          "name": "tokenUsdFeed",
          "type": "address"
        }
      ],
      "name": "setSupportedCollateral",
      "outputs": [],
      "stateMutability": "nonpayable",
      "type": "function"
    },
    {
      "inputs": [
        {
          "internalType": "address",
          "name": "",
          "type": "address"
        }
      ],
      "name": "supportedCollateral",
      "outputs": [
        {
          "internalType": "bool",
          "name": "",
          "type": "bool"
        }
      ],
      "stateMutability": "view",
      "type": "function"
    },
    {
      "inputs": [
        {
          "internalType": "address",
          "name": "newOwner",
          "type": "address"
        }
      ],
      "name": "transferOwnership",
      "outputs": [],
      "stateMutability": "nonpayable",
      "type": "function"
    },
    {
      "inputs": [
        {
          "internalType": "address",
          "name": "token",
          "type": "address"
        },
        {
          "internalType": "uint256",
          "name": "amount",
          "type": "uint256"
        }
      ],
      "name": "withdrawCollateral",
      "outputs": [],
      "stateMutability": "nonpayable",
      "type": "function"
    },
    {
      "inputs": [
        {
          "internalType": "uint256",
          "name": "dETHAmount",
          "type": "uint256"
        }
      ],
      "name": "withdrawFromPool",
      "outputs": [],
      "stateMutability": "nonpayable",
      "type": "function"
    },
    {
      "stateMutability": "payable",
      "type": "receive"
    }
  ],
  "bytecode": "0x60c06040523480156200001157600080fd5b506040516200527638038062005276833981810160405281019062000037919062000348565b33600073ffffffffffffffffffffffffffffffffffffffff168173ffffffffffffffffffffffffffffffffffffffff1603620000ad5760006040517f1e4fbdf7000000000000000000000000000000000000000000000000000000008152600401620000a49190620003a0565b60405180910390fd5b620000be816200021a60201b60201c565b5060018081905550600073ffffffffffffffffffffffffffffffffffffffff168273ffffffffffffffffffffffffffffffffffffffff160362000138576040517f08c379a00000000000000000000000000000000000000000000000000000000081526004016200012f906200041e565b60405180910390fd5b600073ffffffffffffffffffffffffffffffffffffffff168173ffffffffffffffffffffffffffffffffffffffff1603620001aa576040517f08c379a0000000000000000000000000000000000000000000000000000000008152600401620001a19062000490565b60405180910390fd5b8173ffffffffffffffffffffffffffffffffffffffff1660808173ffffffffffffffffffffffffffffffffffffffff16815250508073ffffffffffffffffffffffffffffffffffffffff1660a08173ffffffffffffffffffffffffffffffffffffffff16815250505050620004b2565b60008060009054906101000a900473ffffffffffffffffffffffffffffffffffffffff169050816000806101000a81548173ffffffffffffffffffffffffffffffffffffffff021916908373ffffffffffffffffffffffffffffffffffffffff1602179055508173ffffffffffffffffffffffffffffffffffffffff168173ffffffffffffffffffffffffffffffffffffffff167f8be0079c531659141344cd1fd0a4f28419497f9722a3daafe3b4186f6b6457e060405160405180910390a35050565b600080fd5b600073ffffffffffffffffffffffffffffffffffffffff82169050919050565b60006200031082620002e3565b9050919050565b620003228162000303565b81146200032e57600080fd5b50565b600081519050620003428162000317565b92915050565b60008060408385031215620003625762000361620002de565b5b6000620003728582860162000331565b9250506020620003858582860162000331565b9150509250929050565b6200039a8162000303565b82525050565b6000602082019050620003b760008301846200038f565b92915050565b600082825260208201905092915050565b7f496e76616c696420644554482061646472657373000000000000000000000000600082015250565b600062000406601483620003bd565b91506200041382620003ce565b602082019050919050565b600060208201905081810360008301526200043981620003f7565b9050919050565b7f496e76616c696420455448205553442066656564206164647265737300000000600082015250565b600062000478601c83620003bd565b9150620004858262000440565b602082019050919050565b60006020820190508181036000830152620004ab8162000469565b9050919050565b60805160a051614d436200053360003960008181611a20015281816124160152818161254201528181612d9f01528181612f880152818161338a01526134d6015260008181610f6e0152818161104b015281816111820152818161191a01528181611e2b01528181612113015281816126f801526127cd0152614d436000f3fe6080604052600436106101dc5760003560e01c806394e1373c11610102578063e3cd32d611610095578063fa550eba11610064578063fa550eba1461069f578063fae3706f146106dc578063fdd8266f14610707578063fe6bcd7c14610711576101e3565b8063e3cd32d6146105e3578063e7602b9d1461060e578063ee69f7081461064b578063f2fde38b14610676576101e3565b8063b7181361116100d1578063b718136114610539578063c4e41b2214610564578063c5ebeaec1461058f578063e3513531146105b8576101e3565b806394e1373c1461047d578063a5d5db0c146104ba578063aaf5eb68146104e3578063abd70aa21461050e576101e3565b80633f9b83c41161017a5780638009b7bd116101495780638009b7bd146103d35780638795508d146103fe5780638da5cb5b1461042757806394c784e814610452576101e3565b80633f9b83c41461034a578063402d8883146103875780634a417a5314610391578063715018a6146103bc576101e3565b80632f865568116101b65780632f8655681461029f5780633024a912146102bb57806330fc43ed146102f8578063350c35e914610321576101e3565b80631fd48b9a146101e85780632225dd12146102255780632a2cef0a14610262576101e3565b366101e357005b600080fd5b3480156101f457600080fd5b5061020f600480360381019061020a91906138a8565b61074e565b60405161021c9190613934565b60405180910390f35b34801561023157600080fd5b5061024c600480360381019061024791906138a8565b610781565b6040516102599190613968565b60405180910390f35b34801561026e57600080fd5b50610289600480360381019061028491906138a8565b610793565b6040516102969190613968565b60405180910390f35b6102b960048036038101906102b491906138a8565b610a34565b005b3480156102c757600080fd5b506102e260048036038101906102dd91906139af565b610ee1565b6040516102ef91906139eb565b60405180910390f35b34801561030457600080fd5b5061031f600480360381019061031a91906139af565b610f20565b005b34801561032d57600080fd5b5061034860048036038101906103439190613a06565b611275565b005b34801561035657600080fd5b50610371600480360381019061036c91906138a8565b6116fc565b60405161037e9190613968565b60405180910390f35b61038f611728565b005b34801561039d57600080fd5b506103a6611915565b6040516103b39190613968565b60405180910390f35b3480156103c857600080fd5b506103d1611a0a565b005b3480156103df57600080fd5b506103e8611a1e565b6040516103f59190613934565b60405180910390f35b34801561040a57600080fd5b5061042560048036038101906104209190613a7e565b611a42565b005b34801561043357600080fd5b5061043c611e00565b60405161044991906139eb565b60405180910390f35b34801561045e57600080fd5b50610467611e29565b6040516104749190613af2565b60405180910390f35b34801561048957600080fd5b506104a4600480360381019061049f91906138a8565b611e4d565b6040516104b19190613968565b60405180910390f35b3480156104c657600080fd5b506104e160048036038101906104dc9190613a06565b611e65565b005b3480156104ef57600080fd5b506104f861206d565b6040516105059190613968565b60405180910390f35b34801561051a57600080fd5b50610523612079565b6040516105309190613968565b60405180910390f35b34801561054557600080fd5b5061054e612081565b60405161055b9190613bcb565b60405180910390f35b34801561057057600080fd5b5061057961210f565b6040516105869190613968565b60405180910390f35b34801561059b57600080fd5b506105b660048036038101906105b191906139af565b6121a5565b005b3480156105c457600080fd5b506105cd6123de565b6040516105da9190613968565b60405180910390f35b3480156105ef57600080fd5b506105f86123e4565b6040516106059190613968565b60405180910390f35b34801561061a57600080fd5b5061063560048036038101906106309190613bed565b6123ea565b6040516106429190613968565b60405180910390f35b34801561065757600080fd5b5061066061240f565b60405161066d9190613968565b60405180910390f35b34801561068257600080fd5b5061069d600480360381019061069891906138a8565b6125fd565b005b3480156106ab57600080fd5b506106c660048036038101906106c191906138a8565b612683565b6040516106d39190613c3c565b60405180910390f35b3480156106e857600080fd5b506106f16126a3565b6040516106fe9190613968565b60405180910390f35b61070f6126a9565b005b34801561071d57600080fd5b50610738600480360381019061073391906138a8565b6128b5565b6040516107459190613968565b60405180910390f35b60036020528060005260406000206000915054906101000a900473ffffffffffffffffffffffffffffffffffffffff1681565b600061078c82612994565b9050919050565b6000600260008373ffffffffffffffffffffffffffffffffffffffff1673ffffffffffffffffffffffffffffffffffffffff16815260200190815260200160002060009054906101000a900460ff16610821576040517f08c379a000000000000000000000000000000000000000000000000000000000815260040161081890613cb4565b60405180910390fd5b6000600360008473ffffffffffffffffffffffffffffffffffffffff1673ffffffffffffffffffffffffffffffffffffffff16815260200190815260200160002060009054906101000a900473ffffffffffffffffffffffffffffffffffffffff1690506000808273ffffffffffffffffffffffffffffffffffffffff1663feaf968c6040518163ffffffff1660e01b815260040160a060405180830381865afa1580156108d3573d6000803e3d6000fd5b505050506040513d601f19601f820116820180604052508101906108f79190613d61565b5093505092505060008213610941576040517f08c379a000000000000000000000000000000000000000000000000000000000815260040161093890613e28565b60405180910390fd5b6203f48081426109519190613e77565b1115610992576040517f08c379a000000000000000000000000000000000000000000000000000000000815260040161098990613ef7565b60405180910390fd5b60008373ffffffffffffffffffffffffffffffffffffffff1663313ce5676040518163ffffffff1660e01b8152600401602060405180830381865afa1580156109df573d6000803e3d6000fd5b505050506040513d601f19601f82011682018060405250810190610a039190613f50565b9050806012610a129190613f7d565b600a610a1e91906140e5565b83610a299190614130565b945050505050919050565b610a3c612afe565b3373ffffffffffffffffffffffffffffffffffffffff168173ffffffffffffffffffffffffffffffffffffffff1603610aaa576040517f08c379a0000000000000000000000000000000000000000000000000000000008152600401610aa1906141be565b60405180910390fd5b6000600560008373ffffffffffffffffffffffffffffffffffffffff1673ffffffffffffffffffffffffffffffffffffffff16815260200190815260200160002054905060008111610b31576040517f08c379a0000000000000000000000000000000000000000000000000000000008152600401610b289061422a565b60405180910390fd5b670de0b6b3a7640000610b43836128b5565b10610b83576040517f08c379a0000000000000000000000000000000000000000000000000000000008152600401610b7a90614296565b60405180910390fd5b80341015610bc6576040517f08c379a0000000000000000000000000000000000000000000000000000000008152600401610bbd90614328565b60405180910390fd5b6000600560008473ffffffffffffffffffffffffffffffffffffffff1673ffffffffffffffffffffffffffffffffffffffff1681526020019081526020016000208190555080341115610c2957610c28338234610c239190613e77565b612b44565b5b600061271061290483610c3c9190614130565b610c469190614377565b90506000805b600680549050811015610e6b57600060068281548110610c6f57610c6e6143a8565b5b9060005260206000200160009054906101000a900473ffffffffffffffffffffffffffffffffffffffff1690506000600460008873ffffffffffffffffffffffffffffffffffffffff1673ffffffffffffffffffffffffffffffffffffffff16815260200190815260200160002060008373ffffffffffffffffffffffffffffffffffffffff1673ffffffffffffffffffffffffffffffffffffffff16815260200190815260200160002054905060008103610d2c575050610e58565b6000610d388383612c64565b90506000868287610d4991906143d7565b11610d64578290508186610d5d91906143d7565b9550610d85565b60008688610d729190613e77565b9050610d7e8582612dfb565b9150879650505b80600460008b73ffffffffffffffffffffffffffffffffffffffff1673ffffffffffffffffffffffffffffffffffffffff16815260200190815260200160002060008673ffffffffffffffffffffffffffffffffffffffff1673ffffffffffffffffffffffffffffffffffffffff1681526020019081526020016000206000828254610e119190613e77565b92505081905550610e4333828673ffffffffffffffffffffffffffffffffffffffff1661305e9092919063ffffffff16565b868610610e535750505050610e6b565b505050505b8080610e639061440b565b915050610c4c565b508373ffffffffffffffffffffffffffffffffffffffff163373ffffffffffffffffffffffffffffffffffffffff167f1f0c6615429d1cdae0dfa233abf91d3b31cdbdd82c8081389832a61e1072f1ea8584604051610ecb929190614453565b60405180910390a3505050610ede6130dd565b50565b60068181548110610ef157600080fd5b906000526020600020016000915054906101000a900473ffffffffffffffffffffffffffffffffffffffff1681565b610f28612afe565b60008111610f6b576040517f08c379a0000000000000000000000000000000000000000000000000000000008152600401610f62906144c8565b60405180910390fd5b807f000000000000000000000000000000000000000000000000000000000000000073ffffffffffffffffffffffffffffffffffffffff166370a08231336040518263ffffffff1660e01b8152600401610fc591906139eb565b602060405180830381865afa158015610fe2573d6000803e3d6000fd5b505050506040513d601f19601f8201168201806040525081019061100691906144e8565b1015611047576040517f08c379a000000000000000000000000000000000000000000000000000000000815260040161103e90614561565b60405180910390fd5b60007f000000000000000000000000000000000000000000000000000000000000000073ffffffffffffffffffffffffffffffffffffffff166318160ddd6040518163ffffffff1660e01b8152600401602060405180830381865afa1580156110b4573d6000803e3d6000fd5b505050506040513d601f19601f820116820180604052508101906110d891906144e8565b90506000811161111d576040517f08c379a0000000000000000000000000000000000000000000000000000000008152600401611114906145cd565b60405180910390fd5b600047905060008282856111319190614130565b61113b9190614377565b905060008111611180576040517f08c379a000000000000000000000000000000000000000000000000000000000815260040161117790614639565b60405180910390fd5b7f000000000000000000000000000000000000000000000000000000000000000073ffffffffffffffffffffffffffffffffffffffff16639dc29fac33866040518363ffffffff1660e01b81526004016111db929190614659565b600060405180830381600087803b1580156111f557600080fd5b505af1158015611209573d6000803e3d6000fd5b505050506112173382612b44565b3373ffffffffffffffffffffffffffffffffffffffff167f4dd7c37486c6c1d8bc0f353dcbbf408f37ec158a03596c7e7147d08206f392e9858360405161125f929190614453565b60405180910390a25050506112726130dd565b50565b61127d612afe565b600260008373ffffffffffffffffffffffffffffffffffffffff1673ffffffffffffffffffffffffffffffffffffffff16815260200190815260200160002060009054906101000a900460ff16611309576040517f08c379a0000000000000000000000000000000000000000000000000000000008152600401611300906146ce565b60405180910390fd5b6000811161134c576040517f08c379a0000000000000000000000000000000000000000000000000000000008152600401611343906144c8565b60405180910390fd5b80600460003373ffffffffffffffffffffffffffffffffffffffff1673ffffffffffffffffffffffffffffffffffffffff16815260200190815260200160002060008473ffffffffffffffffffffffffffffffffffffffff1673ffffffffffffffffffffffffffffffffffffffff16815260200190815260200160002054101561140b576040517f08c379a00000000000000000000000000000000000000000000000000000000081526004016114029061473a565b60405180910390fd5b6000600560003373ffffffffffffffffffffffffffffffffffffffff1673ffffffffffffffffffffffffffffffffffffffff1681526020019081526020016000205411156115cd5780600460003373ffffffffffffffffffffffffffffffffffffffff1673ffffffffffffffffffffffffffffffffffffffff16815260200190815260200160002060008473ffffffffffffffffffffffffffffffffffffffff1673ffffffffffffffffffffffffffffffffffffffff16815260200190815260200160002060008282546114df9190613e77565b92505081905550670de0b6b3a76400006114f8336128b5565b1015611539576040517f08c379a0000000000000000000000000000000000000000000000000000000008152600401611530906147cc565b60405180910390fd5b80600460003373ffffffffffffffffffffffffffffffffffffffff1673ffffffffffffffffffffffffffffffffffffffff16815260200190815260200160002060008473ffffffffffffffffffffffffffffffffffffffff1673ffffffffffffffffffffffffffffffffffffffff16815260200190815260200160002060008282546115c591906143d7565b925050819055505b80600460003373ffffffffffffffffffffffffffffffffffffffff1673ffffffffffffffffffffffffffffffffffffffff16815260200190815260200160002060008473ffffffffffffffffffffffffffffffffffffffff1673ffffffffffffffffffffffffffffffffffffffff16815260200190815260200160002060008282546116599190613e77565b9250508190555061168b33828473ffffffffffffffffffffffffffffffffffffffff1661305e9092919063ffffffff16565b8173ffffffffffffffffffffffffffffffffffffffff163373ffffffffffffffffffffffffffffffffffffffff167f45892a46e6cef329bb642da6d69846d324db43d19008edc141ed82382eda1bee836040516116e89190613968565b60405180910390a36116f86130dd565b5050565b6000612710611f4061170d84612994565b6117179190614130565b6117219190614377565b9050919050565b611730612afe565b60003411611773576040517f08c379a000000000000000000000000000000000000000000000000000000000815260040161176a90614838565b60405180910390fd5b6000600560003373ffffffffffffffffffffffffffffffffffffffff1673ffffffffffffffffffffffffffffffffffffffff168152602001908152602001600020549050600081116117fa576040517f08c379a00000000000000000000000000000000000000000000000000000000081526004016117f1906148a4565b60405180910390fd5b6000813411611809573461180b565b815b905080826118199190613e77565b600560003373ffffffffffffffffffffffffffffffffffffffff1673ffffffffffffffffffffffffffffffffffffffff168152602001908152602001600020819055508034111561187a576118793382346118749190613e77565b612b44565b5b3373ffffffffffffffffffffffffffffffffffffffff167f1b8cd61ed43bec7c6bdad3a18ffee613f99c853d16c50678d248d879e1b4343882600560003373ffffffffffffffffffffffffffffffffffffffff1673ffffffffffffffffffffffffffffffffffffffff16815260200190815260200160002054604051611901929190614453565b60405180910390a250506119136130dd565b565b6000807f000000000000000000000000000000000000000000000000000000000000000073ffffffffffffffffffffffffffffffffffffffff166318160ddd6040518163ffffffff1660e01b8152600401602060405180830381865afa158015611983573d6000803e3d6000fd5b505050506040513d601f19601f820116820180604052508101906119a791906144e8565b9050600081036119bb576000915050611a07565b60004790508181106119d257600092505050611a07565b600081836119e09190613e77565b905082670de0b6b3a7640000826119f79190614130565b611a019190614377565b93505050505b90565b611a126130e6565b611a1c600061316d565b565b7f000000000000000000000000000000000000000000000000000000000000000081565b611a4a6130e6565b600073ffffffffffffffffffffffffffffffffffffffff168373ffffffffffffffffffffffffffffffffffffffff1603611ab9576040517f08c379a0000000000000000000000000000000000000000000000000000000008152600401611ab090614910565b60405180910390fd5b8115611cbe57600073ffffffffffffffffffffffffffffffffffffffff168173ffffffffffffffffffffffffffffffffffffffff1603611b2e576040517f08c379a0000000000000000000000000000000000000000000000000000000008152600401611b259061497c565b60405180910390fd5b600260008473ffffffffffffffffffffffffffffffffffffffff1673ffffffffffffffffffffffffffffffffffffffff16815260200190815260200160002060009054906101000a900460ff16611be3576006839080600181540180825580915050600190039060005260206000200160009091909190916101000a81548173ffffffffffffffffffffffffffffffffffffffff021916908373ffffffffffffffffffffffffffffffffffffffff1602179055505b6001600260008573ffffffffffffffffffffffffffffffffffffffff1673ffffffffffffffffffffffffffffffffffffffff16815260200190815260200160002060006101000a81548160ff02191690831515021790555080600360008573ffffffffffffffffffffffffffffffffffffffff1673ffffffffffffffffffffffffffffffffffffffff16815260200190815260200160002060006101000a81548173ffffffffffffffffffffffffffffffffffffffff021916908373ffffffffffffffffffffffffffffffffffffffff160217905550611d96565b6000600260008573ffffffffffffffffffffffffffffffffffffffff1673ffffffffffffffffffffffffffffffffffffffff16815260200190815260200160002060006101000a81548160ff0219169083151502179055506000600360008573ffffffffffffffffffffffffffffffffffffffff1673ffffffffffffffffffffffffffffffffffffffff16815260200190815260200160002060006101000a81548173ffffffffffffffffffffffffffffffffffffffff021916908373ffffffffffffffffffffffffffffffffffffffff1602179055505b8073ffffffffffffffffffffffffffffffffffffffff168373ffffffffffffffffffffffffffffffffffffffff167fef1d7891af9c5a9a0b7021aaacb10fed0c14df81c8950d3382931930986d9ebc84604051611df39190613c3c565b60405180910390a3505050565b60008060009054906101000a900473ffffffffffffffffffffffffffffffffffffffff16905090565b7f000000000000000000000000000000000000000000000000000000000000000081565b60056020528060005260406000206000915090505481565b611e6d612afe565b600260008373ffffffffffffffffffffffffffffffffffffffff1673ffffffffffffffffffffffffffffffffffffffff16815260200190815260200160002060009054906101000a900460ff16611ef9576040517f08c379a0000000000000000000000000000000000000000000000000000000008152600401611ef0906146ce565b60405180910390fd5b60008111611f3c576040517f08c379a0000000000000000000000000000000000000000000000000000000008152600401611f33906144c8565b60405180910390fd5b611f693330838573ffffffffffffffffffffffffffffffffffffffff16613231909392919063ffffffff16565b80600460003373ffffffffffffffffffffffffffffffffffffffff1673ffffffffffffffffffffffffffffffffffffffff16815260200190815260200160002060008473ffffffffffffffffffffffffffffffffffffffff1673ffffffffffffffffffffffffffffffffffffffff1681526020019081526020016000206000828254611ff591906143d7565b925050819055508173ffffffffffffffffffffffffffffffffffffffff163373ffffffffffffffffffffffffffffffffffffffff167ff1c0dd7e9b98bbff859029005ef89b127af049cd18df1a8d79f0b7e019911e56836040516120599190613968565b60405180910390a36120696130dd565b5050565b670de0b6b3a764000081565b600047905090565b6060600680548060200260200160405190810160405280929190818152602001828054801561210557602002820191906000526020600020905b8160009054906101000a900473ffffffffffffffffffffffffffffffffffffffff1673ffffffffffffffffffffffffffffffffffffffff16815260200190600101908083116120bb575b5050505050905090565b60007f000000000000000000000000000000000000000000000000000000000000000073ffffffffffffffffffffffffffffffffffffffff166318160ddd6040518163ffffffff1660e01b8152600401602060405180830381865afa15801561217c573d6000803e3d6000fd5b505050506040513d601f19601f820116820180604052508101906121a091906144e8565b905090565b6121ad612afe565b600081116121f0576040517f08c379a00000000000000000000000000000000000000000000000000000000081526004016121e7906144c8565b60405180910390fd5b80471015612233576040517f08c379a000000000000000000000000000000000000000000000000000000000815260040161222a906149e8565b60405180910390fd5b600061223e33612994565b905060008111612283576040517f08c379a000000000000000000000000000000000000000000000000000000000815260040161227a90614a54565b60405180910390fd5b6000612710611f40836122969190614130565b6122a09190614377565b9050600083600560003373ffffffffffffffffffffffffffffffffffffffff1673ffffffffffffffffffffffffffffffffffffffff168152602001908152602001600020546122ef91906143d7565b905081811115612334576040517f08c379a000000000000000000000000000000000000000000000000000000000815260040161232b90614ac0565b60405180910390fd5b80600560003373ffffffffffffffffffffffffffffffffffffffff1673ffffffffffffffffffffffffffffffffffffffff168152602001908152602001600020819055506123823385612b44565b3373ffffffffffffffffffffffffffffffffffffffff167fac59582e5396aca512fa873a2047e7f4c80f8f55d4a06cb34a78a0187f62719f856040516123c89190613968565b60405180910390a25050506123db6130dd565b50565b61290481565b61213481565b6004602052816000526040600020602052806000526040600020600091509150505481565b60008060007f000000000000000000000000000000000000000000000000000000000000000073ffffffffffffffffffffffffffffffffffffffff1663feaf968c6040518163ffffffff1660e01b815260040160a060405180830381865afa15801561247f573d6000803e3d6000fd5b505050506040513d601f19601f820116820180604052508101906124a39190613d61565b50935050925050600082136124ed576040517f08c379a00000000000000000000000000000000000000000000000000000000081526004016124e490614b2c565b60405180910390fd5b6203f48081426124fd9190613e77565b111561253e576040517f08c379a000000000000000000000000000000000000000000000000000000000815260040161253590614b98565b60405180910390fd5b60007f000000000000000000000000000000000000000000000000000000000000000073ffffffffffffffffffffffffffffffffffffffff1663313ce5676040518163ffffffff1660e01b8152600401602060405180830381865afa1580156125ab573d6000803e3d6000fd5b505050506040513d601f19601f820116820180604052508101906125cf9190613f50565b90508060126125de9190613f7d565b600a6125ea91906140e5565b836125f59190614130565b935050505090565b6126056130e6565b600073ffffffffffffffffffffffffffffffffffffffff168173ffffffffffffffffffffffffffffffffffffffff16036126775760006040517f1e4fbdf700000000000000000000000000000000000000000000000000000000815260040161266e91906139eb565b60405180910390fd5b6126808161316d565b50565b60026020528060005260406000206000915054906101000a900460ff1681565b611f4081565b6126b1612afe565b600034116126f4576040517f08c379a00000000000000000000000000000000000000000000000000000000081526004016126eb90614838565b60405180910390fd5b60007f000000000000000000000000000000000000000000000000000000000000000073ffffffffffffffffffffffffffffffffffffffff166318160ddd6040518163ffffffff1660e01b8152600401602060405180830381865afa158015612761573d6000803e3d6000fd5b505050506040513d601f19601f8201168201806040525081019061278591906144e8565b9050600034476127959190613e77565b90506000808314806127a75750600082145b6127c7578183346127b89190614130565b6127c29190614377565b6127c9565b345b90507f000000000000000000000000000000000000000000000000000000000000000073ffffffffffffffffffffffffffffffffffffffff166340c10f1933836040518363ffffffff1660e01b8152600401612826929190614659565b600060405180830381600087803b15801561284057600080fd5b505af1158015612854573d6000803e3d6000fd5b505050503373ffffffffffffffffffffffffffffffffffffffff167fb9f28a03aea3165eb6be29a19377e5e423ffcb5cfdd0d9a66b252b14b9cc741834836040516128a0929190614453565b60405180910390a25050506128b36130dd565b565b600080600560008473ffffffffffffffffffffffffffffffffffffffff1673ffffffffffffffffffffffffffffffffffffffff1681526020019081526020016000205490506000810361292b577fffffffffffffffffffffffffffffffffffffffffffffffffffffffffffffffff91505061298f565b600061293684612994565b90506000810361294b5760009250505061298f565b60006127106121348361295e9190614130565b6129689190614377565b905082670de0b6b3a76400008261297f9190614130565b6129899190614377565b93505050505b919050565b600080600090505b600680549050811015612af8576000600682815481106129bf576129be6143a8565b5b9060005260206000200160009054906101000a900473ffffffffffffffffffffffffffffffffffffffff1690506000600460008673ffffffffffffffffffffffffffffffffffffffff1673ffffffffffffffffffffffffffffffffffffffff16815260200190815260200160002060008373ffffffffffffffffffffffffffffffffffffffff1673ffffffffffffffffffffffffffffffffffffffff168152602001908152602001600020549050600081118015612ac65750600260008373ffffffffffffffffffffffffffffffffffffffff1673ffffffffffffffffffffffffffffffffffffffff16815260200190815260200160002060009054906101000a900460ff165b15612ae357612ad58282612c64565b84612ae091906143d7565b93505b50508080612af09061440b565b91505061299c565b50919050565b600260015403612b3a576040517f3ee5aeb500000000000000000000000000000000000000000000000000000000815260040160405180910390fd5b6002600181905550565b600073ffffffffffffffffffffffffffffffffffffffff168273ffffffffffffffffffffffffffffffffffffffff1603612bb3576040517f08c379a0000000000000000000000000000000000000000000000000000000008152600401612baa90614c04565b60405180910390fd5b60008273ffffffffffffffffffffffffffffffffffffffff1682604051612bd990614c55565b60006040518083038185875af1925050503d8060008114612c16576040519150601f19603f3d011682016040523d82523d6000602084013e612c1b565b606091505b5050905080612c5f576040517f08c379a0000000000000000000000000000000000000000000000000000000008152600401612c5690614cb6565b60405180910390fd5b505050565b6000600260008473ffffffffffffffffffffffffffffffffffffffff1673ffffffffffffffffffffffffffffffffffffffff16815260200190815260200160002060009054906101000a900460ff161580612cbf5750600082145b15612ccd5760009050612df5565b6000600360008573ffffffffffffffffffffffffffffffffffffffff1673ffffffffffffffffffffffffffffffffffffffff16815260200190815260200160002060009054906101000a900473ffffffffffffffffffffffffffffffffffffffff169050600073ffffffffffffffffffffffffffffffffffffffff168173ffffffffffffffffffffffffffffffffffffffff1603612d6f576000915050612df5565b6000806000612d7d846132b3565b92509250925082612d95576000945050505050612df5565b6000806000612dc37f00000000000000000000000000000000000000000000000000000000000000006132b3565b92509250925082612dde576000975050505050505050612df5565b612deb8a8a87858b613375565b9750505050505050505b92915050565b6000600260008473ffffffffffffffffffffffffffffffffffffffff1673ffffffffffffffffffffffffffffffffffffffff16815260200190815260200160002060009054906101000a900460ff16612e575760009050613058565b6000600360008573ffffffffffffffffffffffffffffffffffffffff1673ffffffffffffffffffffffffffffffffffffffff16815260200190815260200160002060009054906101000a900473ffffffffffffffffffffffffffffffffffffffff169050600073ffffffffffffffffffffffffffffffffffffffff168173ffffffffffffffffffffffffffffffffffffffff1603612ef9576000915050613058565b8073ffffffffffffffffffffffffffffffffffffffff1663feaf968c6040518163ffffffff1660e01b815260040160a060405180830381865afa925050508015612f6157506040513d601f19601f82011682018060405250810190612f5e9190613d61565b60015b612f6f576000915050613058565b60008413612f865760009650505050505050613058565b7f000000000000000000000000000000000000000000000000000000000000000073ffffffffffffffffffffffffffffffffffffffff1663feaf968c6040518163ffffffff1660e01b815260040160a060405180830381865afa92505050801561300e57506040513d601f19601f8201168201806040525081019061300b9190613d61565b60015b6130215760009650505050505050613058565b6000841361303d5760009b505050505050505050505050613058565b61304a8e8e8b878f61345d565b9b5050505050505050505050505b92915050565b6130d8838473ffffffffffffffffffffffffffffffffffffffff1663a9059cbb8585604051602401613091929190614659565b604051602081830303815290604052915060e01b6020820180517bffffffffffffffffffffffffffffffffffffffffffffffffffffffff8381831617835250505050613699565b505050565b60018081905550565b6130ee61373b565b73ffffffffffffffffffffffffffffffffffffffff1661310c611e00565b73ffffffffffffffffffffffffffffffffffffffff161461316b5761312f61373b565b6040517f118cdaa700000000000000000000000000000000000000000000000000000000815260040161316291906139eb565b60405180910390fd5b565b60008060009054906101000a900473ffffffffffffffffffffffffffffffffffffffff169050816000806101000a81548173ffffffffffffffffffffffffffffffffffffffff021916908373ffffffffffffffffffffffffffffffffffffffff1602179055508173ffffffffffffffffffffffffffffffffffffffff168173ffffffffffffffffffffffffffffffffffffffff167f8be0079c531659141344cd1fd0a4f28419497f9722a3daafe3b4186f6b6457e060405160405180910390a35050565b6132ad848573ffffffffffffffffffffffffffffffffffffffff166323b872dd86868660405160240161326693929190614cd6565b604051602081830303815290604052915060e01b6020820180517bffffffffffffffffffffffffffffffffffffffffffffffffffffffff8381831617835250505050613699565b50505050565b60008060008373ffffffffffffffffffffffffffffffffffffffff1663feaf968c6040518163ffffffff1660e01b815260040160a060405180830381865afa92505050801561332057506040513d601f19601f8201168201806040525081019061331d9190613d61565b60015b156133625760008413801561334357506203f48082426133409190613e77565b11155b1561335c5760018483975097509750505050505061336e565b50505050505b60008060009250925092505b9193909250565b60008061338183613743565b905060006133ae7f0000000000000000000000000000000000000000000000000000000000000000613743565b905060006133bb896137c4565b905060008360126133cc9190613f7d565b600a6133d891906140e5565b886133e39190614130565b905060008360126133f49190613f7d565b600a61340091906140e5565b8861340b9190614130565b9050600083601261341c9190613f7d565b600a61342891906140e5565b8b6134339190614130565b90508183826134429190614130565b61344c9190614377565b965050505050505095945050505050565b60008173ffffffffffffffffffffffffffffffffffffffff1663313ce5676040518163ffffffff1660e01b8152600401602060405180830381865afa9250505080156134c757506040513d601f19601f820116820180604052508101906134c49190613f50565b60015b6134d45760009050613690565b7f000000000000000000000000000000000000000000000000000000000000000073ffffffffffffffffffffffffffffffffffffffff1663313ce5676040518163ffffffff1660e01b8152600401602060405180830381865afa92505050801561355c57506040513d601f19601f820116820180604052508101906135599190613f50565b60015b61356a576000915050613690565b60008260126135799190613f7d565b600a61358591906140e5565b876135909190614130565b905060008260126135a19190613f7d565b600a6135ad91906140e5565b876135b89190614130565b90508973ffffffffffffffffffffffffffffffffffffffff1663313ce5676040518163ffffffff1660e01b8152600401602060405180830381865afa92505050801561362257506040513d601f19601f8201168201806040525081019061361f9190613f50565b60015b6136485781818a6136339190614130565b61363d9190614377565b945050505050613690565b600083838c6136579190614130565b6136619190614377565b90508160126136709190613f7d565b600a61367c91906140e5565b816136879190614377565b96505050505050505b95945050505050565b600080602060008451602086016000885af1806136bc576040513d6000823e3d81fd5b3d9250600051915050600082146136d75760018114156136f3565b60008473ffffffffffffffffffffffffffffffffffffffff163b145b1561373557836040517f5274afe700000000000000000000000000000000000000000000000000000000815260040161372c91906139eb565b60405180910390fd5b50505050565b600033905090565b60008173ffffffffffffffffffffffffffffffffffffffff1663313ce5676040518163ffffffff1660e01b8152600401602060405180830381865afa9250505080156137ad57506040513d601f19601f820116820180604052508101906137aa9190613f50565b60015b6137ba57600890506137bf565b809150505b919050565b60008173ffffffffffffffffffffffffffffffffffffffff1663313ce5676040518163ffffffff1660e01b8152600401602060405180830381865afa92505050801561382e57506040513d601f19601f8201168201806040525081019061382b9190613f50565b60015b61383b5760129050613840565b809150505b919050565b600080fd5b600073ffffffffffffffffffffffffffffffffffffffff82169050919050565b60006138758261384a565b9050919050565b6138858161386a565b811461389057600080fd5b50565b6000813590506138a28161387c565b92915050565b6000602082840312156138be576138bd613845565b5b60006138cc84828501613893565b91505092915050565b6000819050919050565b60006138fa6138f56138f08461384a565b6138d5565b61384a565b9050919050565b600061390c826138df565b9050919050565b600061391e82613901565b9050919050565b61392e81613913565b82525050565b60006020820190506139496000830184613925565b92915050565b6000819050919050565b6139628161394f565b82525050565b600060208201905061397d6000830184613959565b92915050565b61398c8161394f565b811461399757600080fd5b50565b6000813590506139a981613983565b92915050565b6000602082840312156139c5576139c4613845565b5b60006139d38482850161399a565b91505092915050565b6139e58161386a565b82525050565b6000602082019050613a0060008301846139dc565b92915050565b60008060408385031215613a1d57613a1c613845565b5b6000613a2b85828601613893565b9250506020613a3c8582860161399a565b9150509250929050565b60008115159050919050565b613a5b81613a46565b8114613a6657600080fd5b50565b600081359050613a7881613a52565b92915050565b600080600060608486031215613a9757613a96613845565b5b6000613aa586828701613893565b9350506020613ab686828701613a69565b9250506040613ac786828701613893565b9150509250925092565b6000613adc82613901565b9050919050565b613aec81613ad1565b82525050565b6000602082019050613b076000830184613ae3565b92915050565b600081519050919050565b600082825260208201905092915050565b6000819050602082019050919050565b613b428161386a565b82525050565b6000613b548383613b39565b60208301905092915050565b6000602082019050919050565b6000613b7882613b0d565b613b828185613b18565b9350613b8d83613b29565b8060005b83811015613bbe578151613ba58882613b48565b9750613bb083613b60565b925050600181019050613b91565b5085935050505092915050565b60006020820190508181036000830152613be58184613b6d565b905092915050565b60008060408385031215613c0457613c03613845565b5b6000613c1285828601613893565b9250506020613c2385828601613893565b9150509250929050565b613c3681613a46565b82525050565b6000602082019050613c516000830184613c2d565b92915050565b600082825260208201905092915050565b7f546f6b656e206e6f7420737570706f7274656400000000000000000000000000600082015250565b6000613c9e601383613c57565b9150613ca982613c68565b602082019050919050565b60006020820190508181036000830152613ccd81613c91565b9050919050565b600069ffffffffffffffffffff82169050919050565b613cf381613cd4565b8114613cfe57600080fd5b50565b600081519050613d1081613cea565b92915050565b6000819050919050565b613d2981613d16565b8114613d3457600080fd5b50565b600081519050613d4681613d20565b92915050565b600081519050613d5b81613983565b92915050565b600080600080600060a08688031215613d7d57613d7c613845565b5b6000613d8b88828901613d01565b9550506020613d9c88828901613d37565b9450506040613dad88828901613d4c565b9350506060613dbe88828901613d4c565b9250506080613dcf88828901613d01565b9150509295509295909350565b7f496e76616c696420707269636500000000000000000000000000000000000000600082015250565b6000613e12600d83613c57565b9150613e1d82613ddc565b602082019050919050565b60006020820190508181036000830152613e4181613e05565b9050919050565b7f4e487b7100000000000000000000000000000000000000000000000000000000600052601160045260246000fd5b6000613e828261394f565b9150613e8d8361394f565b9250828203905081811115613ea557613ea4613e48565b5b92915050565b7f5072696365206461746120746f6f206f6c640000000000000000000000000000600082015250565b6000613ee1601283613c57565b9150613eec82613eab565b602082019050919050565b60006020820190508181036000830152613f1081613ed4565b9050919050565b600060ff82169050919050565b613f2d81613f17565b8114613f3857600080fd5b50565b600081519050613f4a81613f24565b92915050565b600060208284031215613f6657613f65613845565b5b6000613f7484828501613f3b565b91505092915050565b6000613f8882613f17565b9150613f9383613f17565b9250828203905060ff811115613fac57613fab613e48565b5b92915050565b60008160011c9050919050565b6000808291508390505b600185111561400957808604811115613fe557613fe4613e48565b5b6001851615613ff45780820291505b808102905061400285613fb2565b9450613fc9565b94509492505050565b60008261402257600190506140de565b8161403057600090506140de565b816001811461404657600281146140505761407f565b60019150506140de565b60ff84111561406257614061613e48565b5b8360020a91508482111561407957614078613e48565b5b506140de565b5060208310610133831016604e8410600b84101617156140b45782820a9050838111156140af576140ae613e48565b5b6140de565b6140c18484846001613fbf565b925090508184048111156140d8576140d7613e48565b5b81810290505b9392505050565b60006140f08261394f565b91506140fb83613f17565b92506141287fffffffffffffffffffffffffffffffffffffffffffffffffffffffffffffffff8484614012565b905092915050565b600061413b8261394f565b91506141468361394f565b92508282026141548161394f565b9150828204841483151761416b5761416a613e48565b5b5092915050565b7f43616e6e6f74206c697175696461746520796f757273656c6600000000000000600082015250565b60006141a8601983613c57565b91506141b382614172565b602082019050919050565b600060208201905081810360008301526141d78161419b565b9050919050565b7f5573657220686173206e6f206465627400000000000000000000000000000000600082015250565b6000614214601083613c57565b915061421f826141de565b602082019050919050565b6000602082019050818103600083015261424381614207565b9050919050565b7f506f736974696f6e206973206865616c74687900000000000000000000000000600082015250565b6000614280601383613c57565b915061428b8261424a565b602082019050919050565b600060208201905081810360008301526142af81614273565b9050919050565b7f496e73756666696369656e74207061796d656e7420666f72206c69717569646160008201527f74696f6e00000000000000000000000000000000000000000000000000000000602082015250565b6000614312602483613c57565b915061431d826142b6565b604082019050919050565b6000602082019050818103600083015261434181614305565b9050919050565b7f4e487b7100000000000000000000000000000000000000000000000000000000600052601260045260246000fd5b60006143828261394f565b915061438d8361394f565b92508261439d5761439c614348565b5b828204905092915050565b7f4e487b7100000000000000000000000000000000000000000000000000000000600052603260045260246000fd5b60006143e28261394f565b91506143ed8361394f565b925082820190508082111561440557614404613e48565b5b92915050565b60006144168261394f565b91507fffffffffffffffffffffffffffffffffffffffffffffffffffffffffffffffff820361444857614447613e48565b5b600182019050919050565b60006040820190506144686000830185613959565b6144756020830184613959565b9392505050565b7f416d6f756e74206d7573742062652067726561746572207468616e2030000000600082015250565b60006144b2601d83613c57565b91506144bd8261447c565b602082019050919050565b600060208201905081810360008301526144e1816144a5565b9050919050565b6000602082840312156144fe576144fd613845565b5b600061450c84828501613d4c565b91505092915050565b7f496e73756666696369656e7420644554482062616c616e636500000000000000600082015250565b600061454b601983613c57565b915061455682614515565b602082019050919050565b6000602082019050818103600083015261457a8161453e565b9050919050565b7f456d70747920706f6f6c00000000000000000000000000000000000000000000600082015250565b60006145b7600a83613c57565b91506145c282614581565b602082019050919050565b600060208201905081810360008301526145e6816145aa565b9050919050565b7f4e6f2045544820746f2077697468647261770000000000000000000000000000600082015250565b6000614623601283613c57565b915061462e826145ed565b602082019050919050565b6000602082019050818103600083015261465281614616565b9050919050565b600060408201905061466e60008301856139dc565b61467b6020830184613959565b9392505050565b7f436f6c6c61746572616c206e6f7420737570706f727465640000000000000000600082015250565b60006146b8601883613c57565b91506146c382614682565b602082019050919050565b600060208201905081810360008301526146e7816146ab565b9050919050565b7f496e73756666696369656e7420636f6c6c61746572616c2062616c616e636500600082015250565b6000614724601f83613c57565b915061472f826146ee565b602082019050919050565b6000602082019050818103600083015261475381614717565b9050919050565b7f5769746864726177616c20776f756c64206d616b6520706f736974696f6e207560008201527f6e6865616c746879000000000000000000000000000000000000000000000000602082015250565b60006147b6602883613c57565b91506147c18261475a565b604082019050919050565b600060208201905081810360008301526147e5816147a9565b9050919050565b7f4d7573742073656e642045544800000000000000000000000000000000000000600082015250565b6000614822600d83613c57565b915061482d826147ec565b602082019050919050565b6000602082019050818103600083015261485181614815565b9050919050565b7f4e6f206465627420746f20726570617900000000000000000000000000000000600082015250565b600061488e601083613c57565b915061489982614858565b602082019050919050565b600060208201905081810360008301526148bd81614881565b9050919050565b7f496e76616c696420746f6b656e20616464726573730000000000000000000000600082015250565b60006148fa601583613c57565b9150614905826148c4565b602082019050919050565b60006020820190508181036000830152614929816148ed565b9050919050565b7f496e76616c696420707269636520666565642061646472657373000000000000600082015250565b6000614966601a83613c57565b915061497182614930565b602082019050919050565b6000602082019050818103600083015261499581614959565b9050919050565b7f496e73756666696369656e7420706f6f6c2062616c616e636500000000000000600082015250565b60006149d2601983613c57565b91506149dd8261499c565b602082019050919050565b60006020820190508181036000830152614a01816149c5565b9050919050565b7f4e6f20636f6c6c61746572616c206465706f7369746564000000000000000000600082015250565b6000614a3e601783613c57565b9150614a4982614a08565b602082019050919050565b60006020820190508181036000830152614a6d81614a31565b9050919050565b7f4578636565647320626f72726f77696e67206361706163697479000000000000600082015250565b6000614aaa601a83613c57565b9150614ab582614a74565b602082019050919050565b60006020820190508181036000830152614ad981614a9d565b9050919050565b7f496e76616c696420455448207072696365000000000000000000000000000000600082015250565b6000614b16601183613c57565b9150614b2182614ae0565b602082019050919050565b60006020820190508181036000830152614b4581614b09565b9050919050565b7f455448207072696365206461746120746f6f206f6c6400000000000000000000600082015250565b6000614b82601683613c57565b9150614b8d82614b4c565b602082019050919050565b60006020820190508181036000830152614bb181614b75565b9050919050565b7f43616e6e6f74207472616e7366657220746f207a65726f206164647265737300600082015250565b6000614bee601f83613c57565b9150614bf982614bb8565b602082019050919050565b60006020820190508181036000830152614c1d81614be1565b9050919050565b600081905092915050565b50565b6000614c3f600083614c24565b9150614c4a82614c2f565b600082019050919050565b6000614c6082614c32565b9150819050919050565b7f455448207472616e73666572206661696c656400000000000000000000000000600082015250565b6000614ca0601383613c57565b9150614cab82614c6a565b602082019050919050565b60006020820190508181036000830152614ccf81614c93565b9050919050565b6000606082019050614ceb60008301866139dc565b614cf860208301856139dc565b614d056040830184613959565b94935050505056fea26469706673582212200e5a40e085eca835a5bb9bb1cb91fdba886d03c10023a3e42545cc4778fc9b5264736f6c63430008140033",
  "linkReferences": {},
  "deployedLinkReferences": {}
}