{
  "_format": "hh-sol-artifact-1",
  "contractName": "AccountFactory",
  "sourceName": "contracts/AccountFactory.sol",
  "abi": [
    {
      "inputs": [],
      "stateMutability": "nonpayable",
      "type": "constructor"
    },
    {
      "anonymous": false,
      "inputs": [
        {
          "indexed": true,
          "internalType": "address",
          "name": "owner",
          "type": "address"
        },
        {
          "indexed": true,
          "internalType": "address",
          "name": "accountAddress",
          "type": "address"
        },
        {
          "indexed": false,
          "internalType": "string",
          "name": "username",
          "type": "string"
        }
      ],
      "name": "AccountCreated",
      "type": "event"
    },
    {
      "anonymous": false,
      "inputs": [
        {
          "indexed": false,
          "internalType": "uint256",
          "name": "oldFee",
          "type": "uint256"
        },
        {
          "indexed": false,
          "internalType": "uint256",
          "name": "newFee",
          "type": "uint256"
        }
      ],
      "name": "TransactionFeeUpdated",
      "type": "event"
    },
    {
      "anonymous": false,
      "inputs": [
        {
          "indexed": true,
          "internalType": "address",
          "name": "oldTreasury",
          "type": "address"
        },
        {
          "indexed": true,
          "internalType": "address",
          "name": "newTreasury",
          "type": "address"
        }
      ],
      "name": "TreasuryUpdated",
      "type": "event"
    },
    {
      "inputs": [
        {
          "internalType": "address",
          "name": "",
          "type": "address"
        }
      ],
      "name": "addressToUsername",
      "outputs": [
        {
          "internalType": "string",
          "name": "",
          "type": "string"
        }
      ],
      "stateMutability": "view",
      "type": "function"
    },
    {
      "inputs": [
        {
          "internalType": "string",
          "name": "_username",
          "type": "string"
        }
      ],
      "name": "createAccount",
      "outputs": [],
      "stateMutability": "nonpayable",
      "type": "function"
    },
    {
      "inputs": [
        {
          "internalType": "address",
          "name": "_user",
          "type": "address"
        }
      ],
      "name": "getMyAccountAddress",
      "outputs": [
        {
          "internalType": "address",
          "name": "",
          "type": "address"
        }
      ],
      "stateMutability": "view",
      "type": "function"
    },
    {
      "inputs": [
        {
          "internalType": "address",
          "name": "_user",
          "type": "address"
        }
      ],
      "name": "getUsername",
      "outputs": [
        {
          "internalType": "string",
          "name": "",
          "type": "string"
        }
      ],
      "stateMutability": "view",
      "type": "function"
    },
    {
      "inputs": [
        {
          "internalType": "address",
          "name": "_user",
          "type": "address"
        }
      ],
      "name": "hasAccount",
      "outputs": [
        {
          "internalType": "bool",
          "name": "",
          "type": "bool"
        }
      ],
      "stateMutability": "view",
      "type": "function"
    },
    {
      "inputs": [],
      "name": "transactionFee",
      "outputs": [
        {
          "internalType": "uint256",
          "name": "",
          "type": "uint256"
        }
      ],
      "stateMutability": "view",
      "type": "function"
    },
    {
      "inputs": [],
      "name": "treasury",
      "outputs": [
        {
          "internalType": "address",
          "name": "",
          "type": "address"
        }
      ],
      "stateMutability": "view",
      "type": "function"
    },
    {
      "inputs": [
        {
          "internalType": "uint256",
          "name": "_newFee",
          "type": "uint256"
        }
      ],
      "name": "updateTransactionFee",
      "outputs": [],
      "stateMutability": "nonpayable",
      "type": "function"
    },
    {
      "inputs": [
        {
          "internalType": "address",
          "name": "_newTreasury",
          "type": "address"
        }
      ],
      "name": "updateTreasury",
      "outputs": [],
      "stateMutability": "nonpayable",
      "type": "function"
    },
    {
      "inputs": [
        {
          "internalType": "address",
          "name": "",
          "type": "address"
        }
      ],
      "name": "userAccounts",
      "outputs": [
        {
          "internalType": "address",
          "name": "",
          "type": "address"
        }
      ],
      "stateMutability": "view",
      "type": "function"
    },
    {
      "inputs": [
        {
          "internalType": "string",
          "name": "",
          "type": "string"
        }
      ],
      "name": "usernameToAddress",
      "outputs": [
        {
          "internalType": "address",
          "name": "",
          "type": "address"
        }
      ],
      "stateMutability": "view",
      "type": "function"
    }
  ],
  "bytecode": "0x6080604052655af3107a400060015534801561001a57600080fd5b50336000806101000a81548173ffffffffffffffffffffffffffffffffffffffff021916908373ffffffffffffffffffffffffffffffffffffffff16021790555061363a8061006a6000396000f3fe60806040523480156200001157600080fd5b5060043610620000b85760003560e01c80639ed3edf0116200007b5780639ed3edf01462000175578063a94007c11462000197578063c8e40fbf14620001cd578063ce43c0321462000203578063e07a0baa1462000239578063f825f143146200026f57620000b8565b80630ee9769614620000bd578063298daf5b14620000dd5780635251d91c14620000fd57806361d027b314620001335780637f51bb1f1462000155575b600080fd5b620000db6004803603810190620000d5919062000d10565b620002a5565b005b620000fb6004803603810190620000f5919062000db0565b620003d0565b005b6200011b600480360381019062000115919062000e6a565b620007c4565b6040516200012a919062000ead565b60405180910390f35b6200013d620007f7565b6040516200014c919062000ead565b60405180910390f35b6200017360048036038101906200016d919062000e6a565b6200081b565b005b6200017f620009e2565b6040516200018e919062000edb565b60405180910390f35b620001b56004803603810190620001af919062000e6a565b620009e8565b604051620001c4919062000ead565b60405180910390f35b620001eb6004803603810190620001e5919062000e6a565b62000a51565b604051620001fa919062000f15565b60405180910390f35b6200022160048036038101906200021b919062000e6a565b62000ae9565b60405162000230919062000fcc565b60405180910390f35b62000257600480360381019062000251919062000e6a565b62000bc2565b60405162000266919062000fcc565b60405180910390f35b6200028d60048036038101906200028791906200113c565b62000c6a565b6040516200029c919062000ead565b60405180910390f35b60008054906101000a900473ffffffffffffffffffffffffffffffffffffffff1673ffffffffffffffffffffffffffffffffffffffff163373ffffffffffffffffffffffffffffffffffffffff161462000336576040517f08c379a00000000000000000000000000000000000000000000000000000000081526004016200032d9062001203565b60405180910390fd5b662386f26fc1000081111562000383576040517f08c379a00000000000000000000000000000000000000000000000000000000081526004016200037a9062001275565b60405180910390fd5b60006001549050816001819055507f8ca7933ce2ff57fba5ae3725215b1ddd4c4992592aa12800ac9bf8cae75f423b8183604051620003c492919062001297565b60405180910390a15050565b600073ffffffffffffffffffffffffffffffffffffffff16600260003373ffffffffffffffffffffffffffffffffffffffff1673ffffffffffffffffffffffffffffffffffffffff16815260200190815260200160002060009054906101000a900473ffffffffffffffffffffffffffffffffffffffff1673ffffffffffffffffffffffffffffffffffffffff1614620004a1576040517f08c379a0000000000000000000000000000000000000000000000000000000008152600401620004989062001314565b60405180910390fd5b600073ffffffffffffffffffffffffffffffffffffffff1660038383604051620004cd9291906200136a565b908152602001604051809103902060009054906101000a900473ffffffffffffffffffffffffffffffffffffffff1673ffffffffffffffffffffffffffffffffffffffff161462000555576040517f08c379a00000000000000000000000000000000000000000000000000000000081526004016200054c90620013d5565b60405180910390fd5b600082829050116200059e576040517f08c379a0000000000000000000000000000000000000000000000000000000008152600401620005959062001447565b60405180910390fd5b6020828290501115620005e8576040517f08c379a0000000000000000000000000000000000000000000000000000000008152600401620005df90620014b9565b60405180910390fd5b60003330604051620005fa9062000cb3565b62000607929190620014db565b604051809103906000f08015801562000624573d6000803e3d6000fd5b50905080600260003373ffffffffffffffffffffffffffffffffffffffff1673ffffffffffffffffffffffffffffffffffffffff16815260200190815260200160002060006101000a81548173ffffffffffffffffffffffffffffffffffffffff021916908373ffffffffffffffffffffffffffffffffffffffff1602179055503360038484604051620006ba9291906200136a565b908152602001604051809103902060006101000a81548173ffffffffffffffffffffffffffffffffffffffff021916908373ffffffffffffffffffffffffffffffffffffffff1602179055508282600460003373ffffffffffffffffffffffffffffffffffffffff1673ffffffffffffffffffffffffffffffffffffffff16815260200190815260200160002091826200075692919062001749565b508073ffffffffffffffffffffffffffffffffffffffff163373ffffffffffffffffffffffffffffffffffffffff167efa0c50b0f4cf669e4f59b5372d3925b09d456bcf33eacb3dcd05dfb04a7c358585604051620007b792919062001861565b60405180910390a3505050565b60026020528060005260406000206000915054906101000a900473ffffffffffffffffffffffffffffffffffffffff1681565b60008054906101000a900473ffffffffffffffffffffffffffffffffffffffff1681565b60008054906101000a900473ffffffffffffffffffffffffffffffffffffffff1673ffffffffffffffffffffffffffffffffffffffff163373ffffffffffffffffffffffffffffffffffffffff1614620008ac576040517f08c379a0000000000000000000000000000000000000000000000000000000008152600401620008a39062001203565b60405180910390fd5b600073ffffffffffffffffffffffffffffffffffffffff168173ffffffffffffffffffffffffffffffffffffffff16036200091e576040517f08c379a00000000000000000000000000000000000000000000000000000000081526004016200091590620018d7565b60405180910390fd5b60008060009054906101000a900473ffffffffffffffffffffffffffffffffffffffff169050816000806101000a81548173ffffffffffffffffffffffffffffffffffffffff021916908373ffffffffffffffffffffffffffffffffffffffff1602179055508173ffffffffffffffffffffffffffffffffffffffff168173ffffffffffffffffffffffffffffffffffffffff167f4ab5be82436d353e61ca18726e984e561f5c1cc7c6d38b29d2553c790434705a60405160405180910390a35050565b60015481565b6000600260008373ffffffffffffffffffffffffffffffffffffffff1673ffffffffffffffffffffffffffffffffffffffff16815260200190815260200160002060009054906101000a900473ffffffffffffffffffffffffffffffffffffffff169050919050565b60008073ffffffffffffffffffffffffffffffffffffffff16600260008473ffffffffffffffffffffffffffffffffffffffff1673ffffffffffffffffffffffffffffffffffffffff16815260200190815260200160002060009054906101000a900473ffffffffffffffffffffffffffffffffffffffff1673ffffffffffffffffffffffffffffffffffffffff1614159050919050565b6060600460008373ffffffffffffffffffffffffffffffffffffffff1673ffffffffffffffffffffffffffffffffffffffff168152602001908152602001600020805462000b379062001542565b80601f016020809104026020016040519081016040528092919081815260200182805462000b659062001542565b801562000bb65780601f1062000b8a5761010080835404028352916020019162000bb6565b820191906000526020600020905b81548152906001019060200180831162000b9857829003601f168201915b50505050509050919050565b6004602052806000526040600020600091509050805462000be39062001542565b80601f016020809104026020016040519081016040528092919081815260200182805462000c119062001542565b801562000c625780601f1062000c365761010080835404028352916020019162000c62565b820191906000526020600020905b81548152906001019060200180831162000c4457829003601f168201915b505050505081565b6003818051602081018201805184825260208301602085012081835280955050505050506000915054906101000a900473ffffffffffffffffffffffffffffffffffffffff1681565b611d0b80620018fa83390190565b6000604051905090565b600080fd5b600080fd5b6000819050919050565b62000cea8162000cd5565b811462000cf657600080fd5b50565b60008135905062000d0a8162000cdf565b92915050565b60006020828403121562000d295762000d2862000ccb565b5b600062000d398482850162000cf9565b91505092915050565b600080fd5b600080fd5b600080fd5b60008083601f84011262000d6a5762000d6962000d42565b5b8235905067ffffffffffffffff81111562000d8a5762000d8962000d47565b5b60208301915083600182028301111562000da95762000da862000d4c565b5b9250929050565b6000806020838503121562000dca5762000dc962000ccb565b5b600083013567ffffffffffffffff81111562000deb5762000dea62000cd0565b5b62000df98582860162000d51565b92509250509250929050565b600073ffffffffffffffffffffffffffffffffffffffff82169050919050565b600062000e328262000e05565b9050919050565b62000e448162000e25565b811462000e5057600080fd5b50565b60008135905062000e648162000e39565b92915050565b60006020828403121562000e835762000e8262000ccb565b5b600062000e938482850162000e53565b91505092915050565b62000ea78162000e25565b82525050565b600060208201905062000ec4600083018462000e9c565b92915050565b62000ed58162000cd5565b82525050565b600060208201905062000ef2600083018462000eca565b92915050565b60008115159050919050565b62000f0f8162000ef8565b82525050565b600060208201905062000f2c600083018462000f04565b92915050565b600081519050919050565b600082825260208201905092915050565b60005b8381101562000f6e57808201518184015260208101905062000f51565b60008484015250505050565b6000601f19601f8301169050919050565b600062000f988262000f32565b62000fa4818562000f3d565b935062000fb681856020860162000f4e565b62000fc18162000f7a565b840191505092915050565b6000602082019050818103600083015262000fe8818462000f8b565b905092915050565b600080fd5b7f4e487b7100000000000000000000000000000000000000000000000000000000600052604160045260246000fd5b6200102f8262000f7a565b810181811067ffffffffffffffff8211171562001051576200105062000ff5565b5b80604052505050565b60006200106662000cc1565b905062001074828262001024565b919050565b600067ffffffffffffffff82111562001097576200109662000ff5565b5b620010a28262000f7a565b9050602081019050919050565b82818337600083830152505050565b6000620010d5620010cf8462001079565b6200105a565b905082815260208101848484011115620010f457620010f362000ff0565b5b62001101848285620010af565b509392505050565b600082601f83011262001121576200112062000d42565b5b813562001133848260208601620010be565b91505092915050565b60006020828403121562001155576200115462000ccb565b5b600082013567ffffffffffffffff81111562001176576200117562000cd0565b5b620011848482850162001109565b91505092915050565b7f4f6e6c792074726561737572792063616e2063616c6c20746869732066756e6360008201527f74696f6e00000000000000000000000000000000000000000000000000000000602082015250565b6000620011eb60248362000f3d565b9150620011f8826200118d565b604082019050919050565b600060208201905081810360008301526200121e81620011dc565b9050919050565b7f46656520746f6f20686967680000000000000000000000000000000000000000600082015250565b60006200125d600c8362000f3d565b91506200126a8262001225565b602082019050919050565b6000602082019050818103600083015262001290816200124e565b9050919050565b6000604082019050620012ae600083018562000eca565b620012bd602083018462000eca565b9392505050565b7f5573657220616c72656164792068617320616e206163636f756e740000000000600082015250565b6000620012fc601b8362000f3d565b91506200130982620012c4565b602082019050919050565b600060208201905081810360008301526200132f81620012ed565b9050919050565b600081905092915050565b60006200134f838562001336565b93506200135e838584620010af565b82840190509392505050565b60006200137982848662001341565b91508190509392505050565b7f557365726e616d6520697320616c72656164792074616b656e00000000000000600082015250565b6000620013bd60198362000f3d565b9150620013ca8262001385565b602082019050919050565b60006020820190508181036000830152620013f081620013ae565b9050919050565b7f557365726e616d652063616e6e6f7420626520656d7074790000000000000000600082015250565b60006200142f60188362000f3d565b91506200143c82620013f7565b602082019050919050565b60006020820190508181036000830152620014628162001420565b9050919050565b7f557365726e616d6520746f6f206c6f6e67000000000000000000000000000000600082015250565b6000620014a160118362000f3d565b9150620014ae8262001469565b602082019050919050565b60006020820190508181036000830152620014d48162001492565b9050919050565b6000604082019050620014f2600083018562000e9c565b62001501602083018462000e9c565b9392505050565b600082905092915050565b7f4e487b7100000000000000000000000000000000000000000000000000000000600052602260045260246000fd5b600060028204905060018216806200155b57607f821691505b60208210810362001571576200157062001513565b5b50919050565b60008190508160005260206000209050919050565b60006020601f8301049050919050565b600082821b905092915050565b600060088302620015db7fffffffffffffffffffffffffffffffffffffffffffffffffffffffffffffffff826200159c565b620015e786836200159c565b95508019841693508086168417925050509392505050565b6000819050919050565b60006200162a620016246200161e8462000cd5565b620015ff565b62000cd5565b9050919050565b6000819050919050565b620016468362001609565b6200165e620016558262001631565b848454620015a9565b825550505050565b600090565b6200167562001666565b620016828184846200163b565b505050565b5b81811015620016aa576200169e6000826200166b565b60018101905062001688565b5050565b601f821115620016f957620016c38162001577565b620016ce846200158c565b81016020851015620016de578190505b620016f6620016ed856200158c565b83018262001687565b50505b505050565b600082821c905092915050565b60006200171e60001984600802620016fe565b1980831691505092915050565b60006200173983836200170b565b9150826002028217905092915050565b62001755838362001508565b67ffffffffffffffff81111562001771576200177062000ff5565b5b6200177d825462001542565b6200178a828285620016ae565b6000601f831160018114620017be5760008415620017a9578287013590505b620017b585826200172b565b86555062001825565b601f198416620017ce8662001577565b60005b82811015620017f857848901358255600182019150602085019450602081019050620017d1565b8683101562001818578489013562001814601f8916826200170b565b8355505b6001600288020188555050505b50505050505050565b60006200183c838562000f3d565b93506200184b838584620010af565b620018568362000f7a565b840190509392505050565b600060208201905081810360008301526200187e8184866200182e565b90509392505050565b7f496e76616c696420747265617375727920616464726573730000000000000000600082015250565b6000620018bf60188362000f3d565b9150620018cc8262001887565b602082019050919050565b60006020820190508181036000830152620018f281620018b0565b905091905056fe60a06040523480156200001157600080fd5b5060405162001d0b38038062001d0b833981810160405281019062000037919062000314565b81600073ffffffffffffffffffffffffffffffffffffffff168173ffffffffffffffffffffffffffffffffffffffff1603620000ad5760006040517f1e4fbdf7000000000000000000000000000000000000000000000000000000008152600401620000a491906200036c565b60405180910390fd5b620000be81620001e660201b60201c565b5060018081905550600073ffffffffffffffffffffffffffffffffffffffff168273ffffffffffffffffffffffffffffffffffffffff160362000138576040517f08c379a00000000000000000000000000000000000000000000000000000000081526004016200012f90620003ea565b60405180910390fd5b600073ffffffffffffffffffffffffffffffffffffffff168173ffffffffffffffffffffffffffffffffffffffff1603620001aa576040517f08c379a0000000000000000000000000000000000000000000000000000000008152600401620001a1906200045c565b60405180910390fd5b8073ffffffffffffffffffffffffffffffffffffffff1660808173ffffffffffffffffffffffffffffffffffffffff168152505050506200047e565b60008060009054906101000a900473ffffffffffffffffffffffffffffffffffffffff169050816000806101000a81548173ffffffffffffffffffffffffffffffffffffffff021916908373ffffffffffffffffffffffffffffffffffffffff1602179055508173ffffffffffffffffffffffffffffffffffffffff168173ffffffffffffffffffffffffffffffffffffffff167f8be0079c531659141344cd1fd0a4f28419497f9722a3daafe3b4186f6b6457e060405160405180910390a35050565b600080fd5b600073ffffffffffffffffffffffffffffffffffffffff82169050919050565b6000620002dc82620002af565b9050919050565b620002ee81620002cf565b8114620002fa57600080fd5b50565b6000815190506200030e81620002e3565b92915050565b600080604083850312156200032e576200032d620002aa565b5b60006200033e85828601620002fd565b92505060206200035185828601620002fd565b9150509250929050565b6200036681620002cf565b82525050565b60006020820190506200038360008301846200035b565b92915050565b600082825260208201905092915050565b7f496e76616c6964206f776e657220616464726573730000000000000000000000600082015250565b6000620003d260158362000389565b9150620003df826200039a565b602082019050919050565b600060208201905081810360008301526200040581620003c3565b9050919050565b7f496e76616c696420666163746f72792061646472657373000000000000000000600082015250565b60006200044460178362000389565b915062000451826200040c565b602082019050919050565b60006020820190508181036000830152620004778162000435565b9050919050565b60805161186a620004a1600039600081816107a201526108fe015261186a6000f3fe6080604052600436106100ec5760003560e01c8063809dab6a1161008a578063b7760c8f11610059578063b7760c8f14610326578063d0e30db01461034f578063db2e21bc14610359578063f2fde38b146103705761012c565b8063809dab6a1461027a5780638da5cb5b146102a5578063966dae0e146102d0578063ad787096146102fb5761012c565b80634b56504f116100c65780634b56504f146101e457806352053c941461020d578063620d54b214610238578063715018a6146102635761012c565b806312065fe0146101675780632a428005146101925780632e1a7d4d146101bb5761012c565b3661012c577f88a5966d370b9919b20f3e2c13ff65706f196a4e32cc2c12bf57088f885258743334604051610122929190611028565b60405180910390a1005b7f88a5966d370b9919b20f3e2c13ff65706f196a4e32cc2c12bf57088f88525874333460405161015d929190611028565b60405180910390a1005b34801561017357600080fd5b5061017c610399565b6040516101899190611051565b60405180910390f35b34801561019e57600080fd5b506101b960048036038101906101b4919061109d565b6103a1565b005b3480156101c757600080fd5b506101e260048036038101906101dd919061109d565b6104fe565b005b3480156101f057600080fd5b5061020b6004803603810190610206919061109d565b61063a565b005b34801561021957600080fd5b50610222610721565b60405161022f9190611051565b60405180910390f35b34801561024457600080fd5b5061024d610727565b60405161025a9190611051565b60405180910390f35b34801561026f57600080fd5b50610278610731565b005b34801561028657600080fd5b5061028f610745565b60405161029c9190611051565b60405180910390f35b3480156102b157600080fd5b506102ba610777565b6040516102c791906110ca565b60405180910390f35b3480156102dc57600080fd5b506102e56107a0565b6040516102f291906110ca565b60405180910390f35b34801561030757600080fd5b506103106107c4565b60405161031d9190611051565b60405180910390f35b34801561033257600080fd5b5061034d60048036038101906103489190611111565b6107ca565b005b610357610c28565b005b34801561036557600080fd5b5061036e610cae565b005b34801561037c57600080fd5b5061039760048036038101906103929190611151565b610da6565b005b600047905090565b6103a9610e2c565b600081116103ec576040517f08c379a00000000000000000000000000000000000000000000000000000000081526004016103e3906111db565b60405180910390fd5b60006103f6610745565b90508082111561043b576040517f08c379a000000000000000000000000000000000000000000000000000000000815260040161043290611247565b60405180910390fd5b6000610445610399565b90506000836002546104579190611296565b90506127106123288361046a91906112ca565b610474919061133b565b8111156104b6576040517f08c379a00000000000000000000000000000000000000000000000000000000081526004016104ad906113de565b60405180910390fd5b806002819055507f7a3a84ab1bfb7bb7d13edede430934a5b437937177c56fe6fdea9d02b0f1c84a846002546040516104f09291906113fe565b60405180910390a150505050565b610506610e2c565b61050e610eb3565b60008111610551576040517f08c379a0000000000000000000000000000000000000000000000000000000008152600401610548906111db565b60405180910390fd5b600061055b610745565b9050808211156105a0576040517f08c379a000000000000000000000000000000000000000000000000000000000815260040161059790611247565b60405180910390fd5b6105a8610777565b73ffffffffffffffffffffffffffffffffffffffff166108fc839081150290604051600060405180830381858888f193505050501580156105ed573d6000803e3d6000fd5b507f7084f5476618d8e60b11ef0d7d3f06914655adb8793e28ff7f018d4c76d505d5610617610777565b83604051610626929190611028565b60405180910390a150610637610ef9565b50565b610642610e2c565b60008111610685576040517f08c379a000000000000000000000000000000000000000000000000000000000815260040161067c906111db565b60405180910390fd5b6002548111156106ca576040517f08c379a00000000000000000000000000000000000000000000000000000000081526004016106c190611473565b60405180910390fd5b80600260008282546106dc9190611493565b925050819055507f50a54abe62735bfd64e5c032776c5a57b9ffeb257aba72bf96df46083e50f813816002546040516107169291906113fe565b60405180910390a150565b61232881565b6000600254905090565b610739610e2c565b6107436000610f02565b565b600080610750610399565b90506002548111610762576000610771565b600254816107709190611493565b5b91505090565b60008060009054906101000a900473ffffffffffffffffffffffffffffffffffffffff16905090565b7f000000000000000000000000000000000000000000000000000000000000000081565b60025481565b6107d2610e2c565b6107da610eb3565b600073ffffffffffffffffffffffffffffffffffffffff168173ffffffffffffffffffffffffffffffffffffffff1603610849576040517f08c379a000000000000000000000000000000000000000000000000000000000815260040161084090611513565b60405180910390fd5b3373ffffffffffffffffffffffffffffffffffffffff168173ffffffffffffffffffffffffffffffffffffffff16036108b7576040517f08c379a00000000000000000000000000000000000000000000000000000000081526004016108ae9061157f565b60405180910390fd5b600082116108fa576040517f08c379a00000000000000000000000000000000000000000000000000000000081526004016108f1906111db565b60405180910390fd5b60007f0000000000000000000000000000000000000000000000000000000000000000905060008173ffffffffffffffffffffffffffffffffffffffff16635251d91c846040518263ffffffff1660e01b815260040161095a91906110ca565b602060405180830381865afa158015610977573d6000803e3d6000fd5b505050506040513d601f19601f8201168201806040525081019061099b91906115b4565b9050600073ffffffffffffffffffffffffffffffffffffffff168173ffffffffffffffffffffffffffffffffffffffff1603610a0c576040517f08c379a0000000000000000000000000000000000000000000000000000000008152600401610a039061162d565b60405180910390fd5b60008273ffffffffffffffffffffffffffffffffffffffff16639ed3edf06040518163ffffffff1660e01b8152600401602060405180830381865afa158015610a59573d6000803e3d6000fd5b505050506040513d601f19601f82011682018060405250810190610a7d9190611662565b905060008186610a8d9190611296565b90506000610a99610745565b905080821115610ade576040517f08c379a0000000000000000000000000000000000000000000000000000000008152600401610ad590611247565b60405180910390fd5b8473ffffffffffffffffffffffffffffffffffffffff166361d027b36040518163ffffffff1660e01b8152600401602060405180830381865afa158015610b29573d6000803e3d6000fd5b505050506040513d601f19601f82011682018060405250810190610b4d91906115b4565b73ffffffffffffffffffffffffffffffffffffffff166108fc849081150290604051600060405180830381858888f19350505050158015610b92573d6000803e3d6000fd5b508373ffffffffffffffffffffffffffffffffffffffff166108fc889081150290604051600060405180830381858888f19350505050158015610bd9573d6000803e3d6000fd5b507f9ed053bb818ff08b8353cd46f78db1f0799f31c9e4458fdb425c10eccd2efc4433878986604051610c0f949392919061168f565b60405180910390a15050505050610c24610ef9565b5050565b610c30610e2c565b60003411610c73576040517f08c379a0000000000000000000000000000000000000000000000000000000008152600401610c6a90611720565b60405180910390fd5b7f6f85d9948d6ca3dd6ce6ce7d175da22b4e865827ae6fcd530ec7edac1240f9283334604051610ca492919061178c565b60405180910390a1565b610cb6610e2c565b610cbe610eb3565b6000610cc8610745565b905060008111610d0d576040517f08c379a0000000000000000000000000000000000000000000000000000000008152600401610d0490611814565b60405180910390fd5b610d15610777565b73ffffffffffffffffffffffffffffffffffffffff166108fc829081150290604051600060405180830381858888f19350505050158015610d5a573d6000803e3d6000fd5b507f7084f5476618d8e60b11ef0d7d3f06914655adb8793e28ff7f018d4c76d505d5610d84610777565b82604051610d93929190611028565b60405180910390a150610da4610ef9565b565b610dae610e2c565b600073ffffffffffffffffffffffffffffffffffffffff168173ffffffffffffffffffffffffffffffffffffffff1603610e205760006040517f1e4fbdf7000000000000000000000000000000000000000000000000000000008152600401610e1791906110ca565b60405180910390fd5b610e2981610f02565b50565b610e34610fc6565b73ffffffffffffffffffffffffffffffffffffffff16610e52610777565b73ffffffffffffffffffffffffffffffffffffffff1614610eb157610e75610fc6565b6040517f118cdaa7000000000000000000000000000000000000000000000000000000008152600401610ea891906110ca565b60405180910390fd5b565b600260015403610eef576040517f3ee5aeb500000000000000000000000000000000000000000000000000000000815260040160405180910390fd5b6002600181905550565b60018081905550565b60008060009054906101000a900473ffffffffffffffffffffffffffffffffffffffff169050816000806101000a81548173ffffffffffffffffffffffffffffffffffffffff021916908373ffffffffffffffffffffffffffffffffffffffff1602179055508173ffffffffffffffffffffffffffffffffffffffff168173ffffffffffffffffffffffffffffffffffffffff167f8be0079c531659141344cd1fd0a4f28419497f9722a3daafe3b4186f6b6457e060405160405180910390a35050565b600033905090565b600073ffffffffffffffffffffffffffffffffffffffff82169050919050565b6000610ff982610fce565b9050919050565b61100981610fee565b82525050565b6000819050919050565b6110228161100f565b82525050565b600060408201905061103d6000830185611000565b61104a6020830184611019565b9392505050565b60006020820190506110666000830184611019565b92915050565b600080fd5b61107a8161100f565b811461108557600080fd5b50565b60008135905061109781611071565b92915050565b6000602082840312156110b3576110b261106c565b5b60006110c184828501611088565b91505092915050565b60006020820190506110df6000830184611000565b92915050565b6110ee81610fee565b81146110f957600080fd5b50565b60008135905061110b816110e5565b92915050565b600080604083850312156111285761112761106c565b5b600061113685828601611088565b9250506020611147858286016110fc565b9150509250929050565b6000602082840312156111675761116661106c565b5b6000611175848285016110fc565b91505092915050565b600082825260208201905092915050565b7f416d6f756e74206d7573742062652067726561746572207468616e2030000000600082015250565b60006111c5601d8361117e565b91506111d08261118f565b602082019050919050565b600060208201905081810360008301526111f4816111b8565b9050919050565b7f496e73756666696369656e7420617661696c61626c652062616c616e63650000600082015250565b6000611231601e8361117e565b915061123c826111fb565b602082019050919050565b6000602082019050818103600083015261126081611224565b9050919050565b7f4e487b7100000000000000000000000000000000000000000000000000000000600052601160045260246000fd5b60006112a18261100f565b91506112ac8361100f565b92508282019050808211156112c4576112c3611267565b5b92915050565b60006112d58261100f565b91506112e08361100f565b92508282026112ee8161100f565b9150828204841483151761130557611304611267565b5b5092915050565b7f4e487b7100000000000000000000000000000000000000000000000000000000600052601260045260246000fd5b60006113468261100f565b91506113518361100f565b9250826113615761136061130c565b5b828204905092915050565b7f536176696e677320776f756c6420657863656564206d6178696d756d2070657260008201527f63656e7461676500000000000000000000000000000000000000000000000000602082015250565b60006113c860278361117e565b91506113d38261136c565b604082019050919050565b600060208201905081810360008301526113f7816113bb565b9050919050565b60006040820190506114136000830185611019565b6114206020830184611019565b9392505050565b7f496e73756666696369656e7420736176696e67732062616c616e636500000000600082015250565b600061145d601c8361117e565b915061146882611427565b602082019050919050565b6000602082019050818103600083015261148c81611450565b9050919050565b600061149e8261100f565b91506114a98361100f565b92508282039050818111156114c1576114c0611267565b5b92915050565b7f496e76616c696420726563697069656e74206164647265737300000000000000600082015250565b60006114fd60198361117e565b9150611508826114c7565b602082019050919050565b6000602082019050818103600083015261152c816114f0565b9050919050565b7f43616e6e6f74207472616e7366657220746f20796f757273656c660000000000600082015250565b6000611569601b8361117e565b915061157482611533565b602082019050919050565b600060208201905081810360008301526115988161155c565b9050919050565b6000815190506115ae816110e5565b92915050565b6000602082840312156115ca576115c961106c565b5b60006115d88482850161159f565b91505092915050565b7f526563697069656e74206163636f756e74206e6f7420666f756e640000000000600082015250565b6000611617601b8361117e565b9150611622826115e1565b602082019050919050565b600060208201905081810360008301526116468161160a565b9050919050565b60008151905061165c81611071565b92915050565b6000602082840312156116785761167761106c565b5b60006116868482850161164d565b91505092915050565b60006080820190506116a46000830187611000565b6116b16020830186611000565b6116be6040830185611019565b6116cb6060830184611019565b95945050505050565b7f4d7573742073656e642045544820746f206465706f7369740000000000000000600082015250565b600061170a60188361117e565b9150611715826116d4565b602082019050919050565b60006020820190508181036000830152611739816116fd565b9050919050565b7f6465706f73697428290000000000000000000000000000000000000000000000600082015250565b600061177660098361117e565b915061178182611740565b602082019050919050565b60006060820190506117a16000830185611000565b6117ae6020830184611019565b81810360408301526117bf81611769565b90509392505050565b7f4e6f2066756e647320617661696c61626c650000000000000000000000000000600082015250565b60006117fe60128361117e565b9150611809826117c8565b602082019050919050565b6000602082019050818103600083015261182d816117f1565b905091905056fea26469706673582212202b5988045409056146d344dd3e2cd772df0014f7c9d8d51601f7787b9a2b272064736f6c63430008140033a2646970667358221220d3d2edbd0c256e0906d1646ff02e90f8008c848d1780020e39de4b589ffff34564736f6c63430008140033",
  "linkReferences": {},
  "deployedLinkReferences": {}
}