{
  "_format": "hh-sol-artifact-1",
  "contractName": "Account",
  "sourceName": "contracts/Account.sol",
  "abi": [
    {
      "inputs": [
        {
          "internalType": "address",
          "name": "_owner",
          "type": "address"
        },
        {
          "internalType": "address",
          "name": "_factoryAddress",
          "type": "address"
        }
      ],
      "stateMutability": "nonpayable",
      "type": "constructor"
    },
    {
      "inputs": [
        {
          "internalType": "address",
          "name": "owner",
          "type": "address"
        }
      ],
      "name": "OwnableInvalidOwner",
      "type": "error"
    },
    {
      "inputs": [
        {
          "internalType": "address",
          "name": "account",
          "type": "address"
        }
      ],
      "name": "OwnableUnauthorizedAccount",
      "type": "error"
    },
    {
      "inputs": [],
      "name": "ReentrancyGuardReentrantCall",
      "type": "error"
    },
    {
      "anonymous": false,
      "inputs": [
        {
          "indexed": false,
          "internalType": "address",
          "name": "from",
          "type": "address"
        },
        {
          "indexed": false,
          "internalType": "uint256",
          "name": "amount",
          "type": "uint256"
        },
        {
          "indexed": false,
          "internalType": "string",
          "name": "method",
          "type": "string"
        }
      ],
      "name": "Deposited",
      "type": "event"
    },
    {
      "anonymous": false,
      "inputs": [
        {
          "indexed": true,
          "internalType": "address",
          "name": "previousOwner",
          "type": "address"
        },
        {
          "indexed": true,
          "internalType": "address",
          "name": "newOwner",
          "type": "address"
        }
      ],
      "name": "OwnershipTransferred",
      "type": "event"
    },
    {
      "anonymous": false,
      "inputs": [
        {
          "indexed": false,
          "internalType": "address",
          "name": "from",
          "type": "address"
        },
        {
          "indexed": false,
          "internalType": "uint256",
          "name": "amount",
          "type": "uint256"
        }
      ],
      "name": "Received",
      "type": "event"
    },
    {
      "anonymous": false,
      "inputs": [
        {
          "indexed": false,
          "internalType": "uint256",
          "name": "amount",
          "type": "uint256"
        },
        {
          "indexed": false,
          "internalType": "uint256",
          "name": "newBalance",
          "type": "uint256"
        }
      ],
      "name": "SavingsDeposited",
      "type": "event"
    },
    {
      "anonymous": false,
      "inputs": [
        {
          "indexed": false,
          "internalType": "uint256",
          "name": "amount",
          "type": "uint256"
        },
        {
          "indexed": false,
          "internalType": "uint256",
          "name": "newBalance",
          "type": "uint256"
        }
      ],
      "name": "SavingsWithdrawn",
      "type": "event"
    },
    {
      "anonymous": false,
      "inputs": [
        {
          "indexed": false,
          "internalType": "address",
          "name": "from",
          "type": "address"
        },
        {
          "indexed": false,
          "internalType": "address",
          "name": "to",
          "type": "address"
        },
        {
          "indexed": false,
          "internalType": "uint256",
          "name": "amount",
          "type": "uint256"
        },
        {
          "indexed": false,
          "internalType": "uint256",
          "name": "fee",
          "type": "uint256"
        }
      ],
      "name": "Transfer",
      "type": "event"
    },
    {
      "anonymous": false,
      "inputs": [
        {
          "indexed": false,
          "internalType": "address",
          "name": "to",
          "type": "address"
        },
        {
          "indexed": false,
          "internalType": "uint256",
          "name": "amount",
          "type": "uint256"
        }
      ],
      "name": "Withdrawn",
      "type": "event"
    },
    {
      "stateMutability": "payable",
      "type": "fallback"
    },
    {
      "inputs": [],
      "name": "MAX_SAVINGS_PERCENTAGE",
      "outputs": [
        {
          "internalType": "uint256",
          "name": "",
          "type": "uint256"
        }
      ],
      "stateMutability": "view",
      "type": "function"
    },
    {
      "inputs": [],
      "name": "deposit",
      "outputs": [],
      "stateMutability": "payable",
      "type": "function"
    },
    {
      "inputs": [],
      "name": "emergencyWithdraw",
      "outputs": [],
      "stateMutability": "nonpayable",
      "type": "function"
    },
    {
      "inputs": [],
      "name": "factoryAddress",
      "outputs": [
        {
          "internalType": "address",
          "name": "",
          "type": "address"
        }
      ],
      "stateMutability": "view",
      "type": "function"
    },
    {
      "inputs": [],
      "name": "getAvailableBalance",
      "outputs": [
        {
          "internalType": "uint256",
          "name": "",
          "type": "uint256"
        }
      ],
      "stateMutability": "view",
      "type": "function"
    },
    {
      "inputs": [],
      "name": "getBalance",
      "outputs": [
        {
          "internalType": "uint256",
          "name": "",
          "type": "uint256"
        }
      ],
      "stateMutability": "view",
      "type": "function"
    },
    {
      "inputs": [],
      "name": "getSavingsBalance",
      "outputs": [
        {
          "internalType": "uint256",
          "name": "",
          "type": "uint256"
        }
      ],
      "stateMutability": "view",
      "type": "function"
    },
    {
      "inputs": [
        {
          "internalType": "uint256",
          "name": "_amount",
          "type": "uint256"
        }
      ],
      "name": "moveToSavings",
      "outputs": [],
      "stateMutability": "nonpayable",
      "type": "function"
    },
    {
      "inputs": [],
      "name": "owner",
      "outputs": [
        {
          "internalType": "address",
          "name": "",
          "type": "address"
        }
      ],
      "stateMutability": "view",
      "type": "function"
    },
    {
      "inputs": [],
      "name": "renounceOwnership",
      "outputs": [],
      "stateMutability": "nonpayable",
      "type": "function"
    },
    {
      "inputs": [],
      "name": "savingsBalance",
      "outputs": [
        {
          "internalType": "uint256",
          "name": "",
          "type": "uint256"
        }
      ],
      "stateMutability": "view",
      "type": "function"
    },
    {
      "inputs": [
        {
          "internalType": "uint256",
          "name": "_amount",
          "type": "uint256"
        },
        {
          "internalType": "address",
          "name": "_toUserWallet",
          "type": "address"
        }
      ],
      "name": "transfer",
      "outputs": [],
      "stateMutability": "nonpayable",
      "type": "function"
    },
    {
      "inputs": [
        {
          "internalType": "address",
          "name": "newOwner",
          "type": "address"
        }
      ],
      "name": "transferOwnership",
      "outputs": [],
      "stateMutability": "nonpayable",
      "type": "function"
    },
    {
      "inputs": [
        {
          "internalType": "uint256",
          "name": "_amount",
          "type": "uint256"
        }
      ],
      "name": "withdraw",
      "outputs": [],
      "stateMutability": "nonpayable",
      "type": "function"
    },
    {
      "inputs": [
        {
          "internalType": "uint256",
          "name": "_amount",
          "type": "uint256"
        }
      ],
      "name": "withdrawFromSavings",
      "outputs": [],
      "stateMutability": "nonpayable",
      "type": "function"
    },
    {
      "stateMutability": "payable",
      "type": "receive"
    }
  ],
  "bytecode": "0x60a06040523480156200001157600080fd5b5060405162001d0b38038062001d0b833981810160405281019062000037919062000314565b81600073ffffffffffffffffffffffffffffffffffffffff168173ffffffffffffffffffffffffffffffffffffffff1603620000ad5760006040517f1e4fbdf7000000000000000000000000000000000000000000000000000000008152600401620000a491906200036c565b60405180910390fd5b620000be81620001e660201b60201c565b5060018081905550600073ffffffffffffffffffffffffffffffffffffffff168273ffffffffffffffffffffffffffffffffffffffff160362000138576040517f08c379a00000000000000000000000000000000000000000000000000000000081526004016200012f90620003ea565b60405180910390fd5b600073ffffffffffffffffffffffffffffffffffffffff168173ffffffffffffffffffffffffffffffffffffffff1603620001aa576040517f08c379a0000000000000000000000000000000000000000000000000000000008152600401620001a1906200045c565b60405180910390fd5b8073ffffffffffffffffffffffffffffffffffffffff1660808173ffffffffffffffffffffffffffffffffffffffff168152505050506200047e565b60008060009054906101000a900473ffffffffffffffffffffffffffffffffffffffff169050816000806101000a81548173ffffffffffffffffffffffffffffffffffffffff021916908373ffffffffffffffffffffffffffffffffffffffff1602179055508173ffffffffffffffffffffffffffffffffffffffff168173ffffffffffffffffffffffffffffffffffffffff167f8be0079c531659141344cd1fd0a4f28419497f9722a3daafe3b4186f6b6457e060405160405180910390a35050565b600080fd5b600073ffffffffffffffffffffffffffffffffffffffff82169050919050565b6000620002dc82620002af565b9050919050565b620002ee81620002cf565b8114620002fa57600080fd5b50565b6000815190506200030e81620002e3565b92915050565b600080604083850312156200032e576200032d620002aa565b5b60006200033e85828601620002fd565b92505060206200035185828601620002fd565b9150509250929050565b6200036681620002cf565b82525050565b60006020820190506200038360008301846200035b565b92915050565b600082825260208201905092915050565b7f496e76616c6964206f776e657220616464726573730000000000000000000000600082015250565b6000620003d260158362000389565b9150620003df826200039a565b602082019050919050565b600060208201905081810360008301526200040581620003c3565b9050919050565b7f496e76616c696420666163746f72792061646472657373000000000000000000600082015250565b60006200044460178362000389565b915062000451826200040c565b602082019050919050565b60006020820190508181036000830152620004778162000435565b9050919050565b60805161186a620004a1600039600081816107a201526108fe015261186a6000f3fe6080604052600436106100ec5760003560e01c8063809dab6a1161008a578063b7760c8f11610059578063b7760c8f14610326578063d0e30db01461034f578063db2e21bc14610359578063f2fde38b146103705761012c565b8063809dab6a1461027a5780638da5cb5b146102a5578063966dae0e146102d0578063ad787096146102fb5761012c565b80634b56504f116100c65780634b56504f146101e457806352053c941461020d578063620d54b214610238578063715018a6146102635761012c565b806312065fe0146101675780632a428005146101925780632e1a7d4d146101bb5761012c565b3661012c577f88a5966d370b9919b20f3e2c13ff65706f196a4e32cc2c12bf57088f885258743334604051610122929190611028565b60405180910390a1005b7f88a5966d370b9919b20f3e2c13ff65706f196a4e32cc2c12bf57088f88525874333460405161015d929190611028565b60405180910390a1005b34801561017357600080fd5b5061017c610399565b6040516101899190611051565b60405180910390f35b34801561019e57600080fd5b506101b960048036038101906101b4919061109d565b6103a1565b005b3480156101c757600080fd5b506101e260048036038101906101dd919061109d565b6104fe565b005b3480156101f057600080fd5b5061020b6004803603810190610206919061109d565b61063a565b005b34801561021957600080fd5b50610222610721565b60405161022f9190611051565b60405180910390f35b34801561024457600080fd5b5061024d610727565b60405161025a9190611051565b60405180910390f35b34801561026f57600080fd5b50610278610731565b005b34801561028657600080fd5b5061028f610745565b60405161029c9190611051565b60405180910390f35b3480156102b157600080fd5b506102ba610777565b6040516102c791906110ca565b60405180910390f35b3480156102dc57600080fd5b506102e56107a0565b6040516102f291906110ca565b60405180910390f35b34801561030757600080fd5b506103106107c4565b60405161031d9190611051565b60405180910390f35b34801561033257600080fd5b5061034d60048036038101906103489190611111565b6107ca565b005b610357610c28565b005b34801561036557600080fd5b5061036e610cae565b005b34801561037c57600080fd5b5061039760048036038101906103929190611151565b610da6565b005b600047905090565b6103a9610e2c565b600081116103ec576040517f08c379a00000000000000000000000000000000000000000000000000000000081526004016103e3906111db565b60405180910390fd5b60006103f6610745565b90508082111561043b576040517f08c379a000000000000000000000000000000000000000000000000000000000815260040161043290611247565b60405180910390fd5b6000610445610399565b90506000836002546104579190611296565b90506127106123288361046a91906112ca565b610474919061133b565b8111156104b6576040517f08c379a00000000000000000000000000000000000000000000000000000000081526004016104ad906113de565b60405180910390fd5b806002819055507f7a3a84ab1bfb7bb7d13edede430934a5b437937177c56fe6fdea9d02b0f1c84a846002546040516104f09291906113fe565b60405180910390a150505050565b610506610e2c565b61050e610eb3565b60008111610551576040517f08c379a0000000000000000000000000000000000000000000000000000000008152600401610548906111db565b60405180910390fd5b600061055b610745565b9050808211156105a0576040517f08c379a000000000000000000000000000000000000000000000000000000000815260040161059790611247565b60405180910390fd5b6105a8610777565b73ffffffffffffffffffffffffffffffffffffffff166108fc839081150290604051600060405180830381858888f193505050501580156105ed573d6000803e3d6000fd5b507f7084f5476618d8e60b11ef0d7d3f06914655adb8793e28ff7f018d4c76d505d5610617610777565b83604051610626929190611028565b60405180910390a150610637610ef9565b50565b610642610e2c565b60008111610685576040517f08c379a000000000000000000000000000000000000000000000000000000000815260040161067c906111db565b60405180910390fd5b6002548111156106ca576040517f08c379a00000000000000000000000000000000000000000000000000000000081526004016106c190611473565b60405180910390fd5b80600260008282546106dc9190611493565b925050819055507f50a54abe62735bfd64e5c032776c5a57b9ffeb257aba72bf96df46083e50f813816002546040516107169291906113fe565b60405180910390a150565b61232881565b6000600254905090565b610739610e2c565b6107436000610f02565b565b600080610750610399565b90506002548111610762576000610771565b600254816107709190611493565b5b91505090565b60008060009054906101000a900473ffffffffffffffffffffffffffffffffffffffff16905090565b7f000000000000000000000000000000000000000000000000000000000000000081565b60025481565b6107d2610e2c565b6107da610eb3565b600073ffffffffffffffffffffffffffffffffffffffff168173ffffffffffffffffffffffffffffffffffffffff1603610849576040517f08c379a000000000000000000000000000000000000000000000000000000000815260040161084090611513565b60405180910390fd5b3373ffffffffffffffffffffffffffffffffffffffff168173ffffffffffffffffffffffffffffffffffffffff16036108b7576040517f08c379a00000000000000000000000000000000000000000000000000000000081526004016108ae9061157f565b60405180910390fd5b600082116108fa576040517f08c379a00000000000000000000000000000000000000000000000000000000081526004016108f1906111db565b60405180910390fd5b60007f0000000000000000000000000000000000000000000000000000000000000000905060008173ffffffffffffffffffffffffffffffffffffffff16635251d91c846040518263ffffffff1660e01b815260040161095a91906110ca565b602060405180830381865afa158015610977573d6000803e3d6000fd5b505050506040513d601f19601f8201168201806040525081019061099b91906115b4565b9050600073ffffffffffffffffffffffffffffffffffffffff168173ffffffffffffffffffffffffffffffffffffffff1603610a0c576040517f08c379a0000000000000000000000000000000000000000000000000000000008152600401610a039061162d565b60405180910390fd5b60008273ffffffffffffffffffffffffffffffffffffffff16639ed3edf06040518163ffffffff1660e01b8152600401602060405180830381865afa158015610a59573d6000803e3d6000fd5b505050506040513d601f19601f82011682018060405250810190610a7d9190611662565b905060008186610a8d9190611296565b90506000610a99610745565b905080821115610ade576040517f08c379a0000000000000000000000000000000000000000000000000000000008152600401610ad590611247565b60405180910390fd5b8473ffffffffffffffffffffffffffffffffffffffff166361d027b36040518163ffffffff1660e01b8152600401602060405180830381865afa158015610b29573d6000803e3d6000fd5b505050506040513d601f19601f82011682018060405250810190610b4d91906115b4565b73ffffffffffffffffffffffffffffffffffffffff166108fc849081150290604051600060405180830381858888f19350505050158015610b92573d6000803e3d6000fd5b508373ffffffffffffffffffffffffffffffffffffffff166108fc889081150290604051600060405180830381858888f19350505050158015610bd9573d6000803e3d6000fd5b507f9ed053bb818ff08b8353cd46f78db1f0799f31c9e4458fdb425c10eccd2efc4433878986604051610c0f949392919061168f565b60405180910390a15050505050610c24610ef9565b5050565b610c30610e2c565b60003411610c73576040517f08c379a0000000000000000000000000000000000000000000000000000000008152600401610c6a90611720565b60405180910390fd5b7f6f85d9948d6ca3dd6ce6ce7d175da22b4e865827ae6fcd530ec7edac1240f9283334604051610ca492919061178c565b60405180910390a1565b610cb6610e2c565b610cbe610eb3565b6000610cc8610745565b905060008111610d0d576040517f08c379a0000000000000000000000000000000000000000000000000000000008152600401610d0490611814565b60405180910390fd5b610d15610777565b73ffffffffffffffffffffffffffffffffffffffff166108fc829081150290604051600060405180830381858888f19350505050158015610d5a573d6000803e3d6000fd5b507f7084f5476618d8e60b11ef0d7d3f06914655adb8793e28ff7f018d4c76d505d5610d84610777565b82604051610d93929190611028565b60405180910390a150610da4610ef9565b565b610dae610e2c565b600073ffffffffffffffffffffffffffffffffffffffff168173ffffffffffffffffffffffffffffffffffffffff1603610e205760006040517f1e4fbdf7000000000000000000000000000000000000000000000000000000008152600401610e1791906110ca565b60405180910390fd5b610e2981610f02565b50565b610e34610fc6565b73ffffffffffffffffffffffffffffffffffffffff16610e52610777565b73ffffffffffffffffffffffffffffffffffffffff1614610eb157610e75610fc6565b6040517f118cdaa7000000000000000000000000000000000000000000000000000000008152600401610ea891906110ca565b60405180910390fd5b565b600260015403610eef576040517f3ee5aeb500000000000000000000000000000000000000000000000000000000815260040160405180910390fd5b6002600181905550565b60018081905550565b60008060009054906101000a900473ffffffffffffffffffffffffffffffffffffffff169050816000806101000a81548173ffffffffffffffffffffffffffffffffffffffff021916908373ffffffffffffffffffffffffffffffffffffffff1602179055508173ffffffffffffffffffffffffffffffffffffffff168173ffffffffffffffffffffffffffffffffffffffff167f8be0079c531659141344cd1fd0a4f28419497f9722a3daafe3b4186f6b6457e060405160405180910390a35050565b600033905090565b600073ffffffffffffffffffffffffffffffffffffffff82169050919050565b6000610ff982610fce565b9050919050565b61100981610fee565b82525050565b6000819050919050565b6110228161100f565b82525050565b600060408201905061103d6000830185611000565b61104a6020830184611019565b9392505050565b60006020820190506110666000830184611019565b92915050565b600080fd5b61107a8161100f565b811461108557600080fd5b50565b60008135905061109781611071565b92915050565b6000602082840312156110b3576110b261106c565b5b60006110c184828501611088565b91505092915050565b60006020820190506110df6000830184611000565b92915050565b6110ee81610fee565b81146110f957600080fd5b50565b60008135905061110b816110e5565b92915050565b600080604083850312156111285761112761106c565b5b600061113685828601611088565b9250506020611147858286016110fc565b9150509250929050565b6000602082840312156111675761116661106c565b5b6000611175848285016110fc565b91505092915050565b600082825260208201905092915050565b7f416d6f756e74206d7573742062652067726561746572207468616e2030000000600082015250565b60006111c5601d8361117e565b91506111d08261118f565b602082019050919050565b600060208201905081810360008301526111f4816111b8565b9050919050565b7f496e73756666696369656e7420617661696c61626c652062616c616e63650000600082015250565b6000611231601e8361117e565b915061123c826111fb565b602082019050919050565b6000602082019050818103600083015261126081611224565b9050919050565b7f4e487b7100000000000000000000000000000000000000000000000000000000600052601160045260246000fd5b60006112a18261100f565b91506112ac8361100f565b92508282019050808211156112c4576112c3611267565b5b92915050565b60006112d58261100f565b91506112e08361100f565b92508282026112ee8161100f565b9150828204841483151761130557611304611267565b5b5092915050565b7f4e487b7100000000000000000000000000000000000000000000000000000000600052601260045260246000fd5b60006113468261100f565b91506113518361100f565b9250826113615761136061130c565b5b828204905092915050565b7f536176696e677320776f756c6420657863656564206d6178696d756d2070657260008201527f63656e7461676500000000000000000000000000000000000000000000000000602082015250565b60006113c860278361117e565b91506113d38261136c565b604082019050919050565b600060208201905081810360008301526113f7816113bb565b9050919050565b60006040820190506114136000830185611019565b6114206020830184611019565b9392505050565b7f496e73756666696369656e7420736176696e67732062616c616e636500000000600082015250565b600061145d601c8361117e565b915061146882611427565b602082019050919050565b6000602082019050818103600083015261148c81611450565b9050919050565b600061149e8261100f565b91506114a98361100f565b92508282039050818111156114c1576114c0611267565b5b92915050565b7f496e76616c696420726563697069656e74206164647265737300000000000000600082015250565b60006114fd60198361117e565b9150611508826114c7565b602082019050919050565b6000602082019050818103600083015261152c816114f0565b9050919050565b7f43616e6e6f74207472616e7366657220746f20796f757273656c660000000000600082015250565b6000611569601b8361117e565b915061157482611533565b602082019050919050565b600060208201905081810360008301526115988161155c565b9050919050565b6000815190506115ae816110e5565b92915050565b6000602082840312156115ca576115c961106c565b5b60006115d88482850161159f565b91505092915050565b7f526563697069656e74206163636f756e74206e6f7420666f756e640000000000600082015250565b6000611617601b8361117e565b9150611622826115e1565b602082019050919050565b600060208201905081810360008301526116468161160a565b9050919050565b60008151905061165c81611071565b92915050565b6000602082840312156116785761167761106c565b5b60006116868482850161164d565b91505092915050565b60006080820190506116a46000830187611000565b6116b16020830186611000565b6116be6040830185611019565b6116cb6060830184611019565b95945050505050565b7f4d7573742073656e642045544820746f206465706f7369740000000000000000600082015250565b600061170a60188361117e565b9150611715826116d4565b602082019050919050565b60006020820190508181036000830152611739816116fd565b9050919050565b7f6465706f73697428290000000000000000000000000000000000000000000000600082015250565b600061177660098361117e565b915061178182611740565b602082019050919050565b60006060820190506117a16000830185611000565b6117ae6020830184611019565b81810360408301526117bf81611769565b90509392505050565b7f4e6f2066756e647320617661696c61626c650000000000000000000000000000600082015250565b60006117fe60128361117e565b9150611809826117c8565b602082019050919050565b6000602082019050818103600083015261182d816117f1565b905091905056fea26469706673582212202b5988045409056146d344dd3e2cd772df0014f7c9d8d51601f7787b9a2b272064736f6c63430008140033",
  "linkReferences": {},
  "deployedLinkReferences": {}
}